{
  "_format": "hh-sol-artifact-1",
  "contractName": "FuturesMarketManager",
  "sourceName": "contracts/FuturesMarketManager.sol",
  "abi": [
    {
      "inputs": [
        {
          "internalType": "address",
          "name": "_owner",
          "type": "address"
        },
        {
          "internalType": "address",
          "name": "_resolver",
          "type": "address"
        }
      ],
      "payable": false,
      "stateMutability": "nonpayable",
      "type": "constructor"
    },
    {
      "anonymous": false,
      "inputs": [
        {
          "indexed": false,
          "internalType": "bytes32",
          "name": "name",
          "type": "bytes32"
        },
        {
          "indexed": false,
          "internalType": "address",
          "name": "destination",
          "type": "address"
        }
      ],
      "name": "CacheUpdated",
      "type": "event"
    },
    {
      "anonymous": false,
      "inputs": [
        {
          "indexed": false,
          "internalType": "address",
          "name": "market",
          "type": "address"
        },
        {
          "indexed": true,
          "internalType": "bytes32",
          "name": "asset",
          "type": "bytes32"
        },
        {
          "indexed": true,
          "internalType": "bytes32",
          "name": "marketKey",
          "type": "bytes32"
        }
      ],
      "name": "MarketAdded",
      "type": "event"
    },
    {
      "anonymous": false,
      "inputs": [
        {
          "indexed": false,
          "internalType": "address",
          "name": "market",
          "type": "address"
        },
        {
          "indexed": true,
          "internalType": "bytes32",
          "name": "asset",
          "type": "bytes32"
        },
        {
          "indexed": true,
          "internalType": "bytes32",
          "name": "marketKey",
          "type": "bytes32"
        }
      ],
      "name": "MarketRemoved",
      "type": "event"
    },
    {
      "anonymous": false,
      "inputs": [
        {
          "indexed": false,
          "internalType": "address",
          "name": "oldOwner",
          "type": "address"
        },
        {
          "indexed": false,
          "internalType": "address",
          "name": "newOwner",
          "type": "address"
        }
      ],
      "name": "OwnerChanged",
      "type": "event"
    },
    {
      "anonymous": false,
      "inputs": [
        {
          "indexed": false,
          "internalType": "address",
          "name": "newOwner",
          "type": "address"
        }
      ],
      "name": "OwnerNominated",
      "type": "event"
    },
    {
      "constant": true,
      "inputs": [],
      "name": "CONTRACT_NAME",
      "outputs": [
        {
          "internalType": "bytes32",
          "name": "",
          "type": "bytes32"
        }
      ],
      "payable": false,
      "stateMutability": "view",
      "type": "function"
    },
    {
      "constant": false,
      "inputs": [],
      "name": "acceptOwnership",
      "outputs": [],
      "payable": false,
      "stateMutability": "nonpayable",
      "type": "function"
    },
    {
      "constant": false,
      "inputs": [
        {
          "internalType": "address[]",
          "name": "marketsToAdd",
          "type": "address[]"
        }
      ],
      "name": "addMarkets",
      "outputs": [],
      "payable": false,
      "stateMutability": "nonpayable",
      "type": "function"
    },
    {
      "constant": false,
      "inputs": [
        {
          "internalType": "address[]",
          "name": "marketsToAdd",
          "type": "address[]"
        }
      ],
      "name": "addProxiedMarkets",
      "outputs": [],
      "payable": false,
      "stateMutability": "nonpayable",
      "type": "function"
    },
    {
      "constant": true,
      "inputs": [],
      "name": "allMarketSummaries",
      "outputs": [
        {
          "components": [
            {
              "internalType": "address",
              "name": "market",
              "type": "address"
            },
            {
              "internalType": "bytes32",
              "name": "asset",
              "type": "bytes32"
            },
            {
              "internalType": "bytes32",
              "name": "marketKey",
              "type": "bytes32"
            },
            {
              "internalType": "uint256",
              "name": "price",
              "type": "uint256"
            },
            {
              "internalType": "uint256",
              "name": "marketSize",
              "type": "uint256"
            },
            {
              "internalType": "int256",
              "name": "marketSkew",
              "type": "int256"
            },
            {
              "internalType": "uint256",
              "name": "marketDebt",
              "type": "uint256"
            },
            {
              "internalType": "int256",
              "name": "currentFundingRate",
              "type": "int256"
            },
            {
              "internalType": "int256",
              "name": "currentFundingVelocity",
              "type": "int256"
            },
            {
              "internalType": "bool",
              "name": "priceInvalid",
              "type": "bool"
            },
            {
              "internalType": "bool",
              "name": "proxied",
              "type": "bool"
            }
          ],
          "internalType": "struct FuturesMarketManager.MarketSummary[]",
          "name": "",
          "type": "tuple[]"
        }
      ],
      "payable": false,
      "stateMutability": "view",
      "type": "function"
    },
    {
      "constant": true,
      "inputs": [],
      "name": "allMarkets",
      "outputs": [
        {
          "internalType": "address[]",
          "name": "",
          "type": "address[]"
        }
      ],
      "payable": false,
      "stateMutability": "view",
      "type": "function"
    },
    {
      "constant": true,
      "inputs": [
        {
          "internalType": "bool",
          "name": "proxiedMarkets",
          "type": "bool"
        }
      ],
      "name": "allMarkets",
      "outputs": [
        {
          "internalType": "address[]",
          "name": "",
          "type": "address[]"
        }
      ],
      "payable": false,
      "stateMutability": "view",
      "type": "function"
    },
    {
      "constant": false,
      "inputs": [
        {
          "internalType": "address",
          "name": "account",
          "type": "address"
        },
        {
          "internalType": "uint256",
          "name": "amount",
          "type": "uint256"
        }
      ],
      "name": "burnSUSD",
      "outputs": [
        {
          "internalType": "uint256",
          "name": "postReclamationAmount",
          "type": "uint256"
        }
      ],
      "payable": false,
      "stateMutability": "nonpayable",
      "type": "function"
    },
    {
      "constant": true,
      "inputs": [],
      "name": "isResolverCached",
      "outputs": [
        {
          "internalType": "bool",
          "name": "",
          "type": "bool"
        }
      ],
      "payable": false,
      "stateMutability": "view",
      "type": "function"
    },
    {
      "constant": false,
      "inputs": [
        {
          "internalType": "address",
          "name": "account",
          "type": "address"
        },
        {
          "internalType": "uint256",
          "name": "amount",
          "type": "uint256"
        }
      ],
      "name": "issueSUSD",
      "outputs": [],
      "payable": false,
      "stateMutability": "nonpayable",
      "type": "function"
    },
    {
      "constant": true,
      "inputs": [
        {
          "internalType": "bytes32",
          "name": "",
          "type": "bytes32"
        }
      ],
      "name": "marketForKey",
      "outputs": [
        {
          "internalType": "address",
          "name": "",
          "type": "address"
        }
      ],
      "payable": false,
      "stateMutability": "view",
      "type": "function"
    },
    {
      "constant": true,
      "inputs": [
        {
          "internalType": "address[]",
          "name": "addresses",
          "type": "address[]"
        }
      ],
      "name": "marketSummaries",
      "outputs": [
        {
          "components": [
            {
              "internalType": "address",
              "name": "market",
              "type": "address"
            },
            {
              "internalType": "bytes32",
              "name": "asset",
              "type": "bytes32"
            },
            {
              "internalType": "bytes32",
              "name": "marketKey",
              "type": "bytes32"
            },
            {
              "internalType": "uint256",
              "name": "price",
              "type": "uint256"
            },
            {
              "internalType": "uint256",
              "name": "marketSize",
              "type": "uint256"
            },
            {
              "internalType": "int256",
              "name": "marketSkew",
              "type": "int256"
            },
            {
              "internalType": "uint256",
              "name": "marketDebt",
              "type": "uint256"
            },
            {
              "internalType": "int256",
              "name": "currentFundingRate",
              "type": "int256"
            },
            {
              "internalType": "int256",
              "name": "currentFundingVelocity",
              "type": "int256"
            },
            {
              "internalType": "bool",
              "name": "priceInvalid",
              "type": "bool"
            },
            {
              "internalType": "bool",
              "name": "proxied",
              "type": "bool"
            }
          ],
          "internalType": "struct FuturesMarketManager.MarketSummary[]",
          "name": "",
          "type": "tuple[]"
        }
      ],
      "payable": false,
      "stateMutability": "view",
      "type": "function"
    },
    {
      "constant": true,
      "inputs": [
        {
          "internalType": "bytes32[]",
          "name": "marketKeys",
          "type": "bytes32[]"
        }
      ],
      "name": "marketSummariesForKeys",
      "outputs": [
        {
          "components": [
            {
              "internalType": "address",
              "name": "market",
              "type": "address"
            },
            {
              "internalType": "bytes32",
              "name": "asset",
              "type": "bytes32"
            },
            {
              "internalType": "bytes32",
              "name": "marketKey",
              "type": "bytes32"
            },
            {
              "internalType": "uint256",
              "name": "price",
              "type": "uint256"
            },
            {
              "internalType": "uint256",
              "name": "marketSize",
              "type": "uint256"
            },
            {
              "internalType": "int256",
              "name": "marketSkew",
              "type": "int256"
            },
            {
              "internalType": "uint256",
              "name": "marketDebt",
              "type": "uint256"
            },
            {
              "internalType": "int256",
              "name": "currentFundingRate",
              "type": "int256"
            },
            {
              "internalType": "int256",
              "name": "currentFundingVelocity",
              "type": "int256"
            },
            {
              "internalType": "bool",
              "name": "priceInvalid",
              "type": "bool"
            },
            {
              "internalType": "bool",
              "name": "proxied",
              "type": "bool"
            }
          ],
          "internalType": "struct FuturesMarketManager.MarketSummary[]",
          "name": "",
          "type": "tuple[]"
        }
      ],
      "payable": false,
      "stateMutability": "view",
      "type": "function"
    },
    {
      "constant": true,
      "inputs": [
        {
          "internalType": "uint256",
          "name": "index",
          "type": "uint256"
        },
        {
          "internalType": "uint256",
          "name": "pageSize",
          "type": "uint256"
        },
        {
          "internalType": "bool",
          "name": "proxiedMarkets",
          "type": "bool"
        }
      ],
      "name": "markets",
      "outputs": [
        {
          "internalType": "address[]",
          "name": "",
          "type": "address[]"
        }
      ],
      "payable": false,
      "stateMutability": "view",
      "type": "function"
    },
    {
      "constant": true,
      "inputs": [
        {
          "internalType": "uint256",
          "name": "index",
          "type": "uint256"
        },
        {
          "internalType": "uint256",
          "name": "pageSize",
          "type": "uint256"
        }
      ],
      "name": "markets",
      "outputs": [
        {
          "internalType": "address[]",
          "name": "",
          "type": "address[]"
        }
      ],
      "payable": false,
      "stateMutability": "view",
      "type": "function"
    },
    {
      "constant": true,
      "inputs": [
        {
          "internalType": "bytes32[]",
          "name": "marketKeys",
          "type": "bytes32[]"
        }
      ],
      "name": "marketsForKeys",
      "outputs": [
        {
          "internalType": "address[]",
          "name": "",
          "type": "address[]"
        }
      ],
      "payable": false,
      "stateMutability": "view",
      "type": "function"
    },
    {
      "constant": false,
      "inputs": [
        {
          "internalType": "address",
          "name": "_owner",
          "type": "address"
        }
      ],
      "name": "nominateNewOwner",
      "outputs": [],
      "payable": false,
      "stateMutability": "nonpayable",
      "type": "function"
    },
    {
      "constant": true,
      "inputs": [],
      "name": "nominatedOwner",
      "outputs": [
        {
          "internalType": "address",
          "name": "",
          "type": "address"
        }
      ],
      "payable": false,
      "stateMutability": "view",
      "type": "function"
    },
    {
      "constant": true,
      "inputs": [],
      "name": "numMarkets",
      "outputs": [
        {
          "internalType": "uint256",
          "name": "",
          "type": "uint256"
        }
      ],
      "payable": false,
      "stateMutability": "view",
      "type": "function"
    },
    {
      "constant": true,
      "inputs": [
        {
          "internalType": "bool",
          "name": "proxiedMarkets",
          "type": "bool"
        }
      ],
      "name": "numMarkets",
      "outputs": [
        {
          "internalType": "uint256",
          "name": "",
          "type": "uint256"
        }
      ],
      "payable": false,
      "stateMutability": "view",
      "type": "function"
    },
    {
      "constant": true,
      "inputs": [],
      "name": "owner",
      "outputs": [
        {
          "internalType": "address",
          "name": "",
          "type": "address"
        }
      ],
      "payable": false,
      "stateMutability": "view",
      "type": "function"
    },
    {
      "constant": false,
      "inputs": [
        {
          "internalType": "uint256",
          "name": "amount",
          "type": "uint256"
        },
        {
          "internalType": "bytes32",
          "name": "trackingCode",
          "type": "bytes32"
        }
      ],
      "name": "payFee",
      "outputs": [],
      "payable": false,
      "stateMutability": "nonpayable",
      "type": "function"
    },
    {
      "constant": false,
      "inputs": [
        {
          "internalType": "uint256",
          "name": "amount",
          "type": "uint256"
        }
      ],
      "name": "payFee",
      "outputs": [],
      "payable": false,
      "stateMutability": "nonpayable",
      "type": "function"
    },
    {
      "constant": false,
      "inputs": [],
      "name": "rebuildCache",
      "outputs": [],
      "payable": false,
      "stateMutability": "nonpayable",
      "type": "function"
    },
    {
      "constant": false,
      "inputs": [
        {
          "internalType": "address[]",
          "name": "marketsToRemove",
          "type": "address[]"
        }
      ],
      "name": "removeMarkets",
      "outputs": [],
      "payable": false,
      "stateMutability": "nonpayable",
      "type": "function"
    },
    {
      "constant": false,
      "inputs": [
        {
          "internalType": "bytes32[]",
          "name": "marketKeysToRemove",
          "type": "bytes32[]"
        }
      ],
      "name": "removeMarketsByKey",
      "outputs": [],
      "payable": false,
      "stateMutability": "nonpayable",
      "type": "function"
    },
    {
      "constant": true,
      "inputs": [],
      "name": "resolver",
      "outputs": [
        {
          "internalType": "contract AddressResolver",
          "name": "",
          "type": "address"
        }
      ],
      "payable": false,
      "stateMutability": "view",
      "type": "function"
    },
    {
      "constant": true,
      "inputs": [],
      "name": "resolverAddressesRequired",
      "outputs": [
        {
          "internalType": "bytes32[]",
          "name": "addresses",
          "type": "bytes32[]"
        }
      ],
      "payable": false,
      "stateMutability": "view",
      "type": "function"
    },
    {
      "constant": true,
      "inputs": [],
      "name": "totalDebt",
      "outputs": [
        {
          "internalType": "uint256",
          "name": "debt",
          "type": "uint256"
        },
        {
          "internalType": "bool",
          "name": "isInvalid",
          "type": "bool"
        }
      ],
      "payable": false,
      "stateMutability": "view",
      "type": "function"
    },
    {
      "constant": false,
      "inputs": [
        {
          "internalType": "address[]",
          "name": "marketsToUpdate",
          "type": "address[]"
        }
      ],
      "name": "updateMarketsImplementations",
      "outputs": [],
      "payable": false,
      "stateMutability": "nonpayable",
      "type": "function"
    }
  ],
  "bytecode": "0x60806040523480156200001157600080fd5b50604051620045403803806200454083398181016040526200003791908101906200018a565b8082600073ffffffffffffffffffffffffffffffffffffffff168173ffffffffffffffffffffffffffffffffffffffff161415620000ac576040517f08c379a0000000000000000000000000000000000000000000000000000000008152600401620000a3906200025c565b60405180910390fd5b806000806101000a81548173ffffffffffffffffffffffffffffffffffffffff021916908373ffffffffffffffffffffffffffffffffffffffff1602179055507fb532073b38c83145e3e5135377a08bf9aab55bc0fd7c1179cd4fb995d2a5159c600082604051620001209291906200022f565b60405180910390a15080600260006101000a81548173ffffffffffffffffffffffffffffffffffffffff021916908373ffffffffffffffffffffffffffffffffffffffff16021790555050505062000319565b6000815190506200018481620002ff565b92915050565b600080604083850312156200019e57600080fd5b6000620001ae8582860162000173565b9250506020620001c18582860162000173565b9150509250929050565b620001d681620002c3565b82525050565b620001e7816200028f565b82525050565b6000620001fc6019836200027e565b91507f4f776e657220616464726573732063616e6e6f742062652030000000000000006000830152602082019050919050565b6000604082019050620002466000830185620001cb565b620002556020830184620001dc565b9392505050565b600060208201905081810360008301526200027781620001ed565b9050919050565b600082825260208201905092915050565b60006200029c82620002a3565b9050919050565b600073ffffffffffffffffffffffffffffffffffffffff82169050919050565b6000620002d082620002d7565b9050919050565b6000620002e482620002eb565b9050919050565b6000620002f882620002a3565b9050919050565b6200030a816200028f565b81146200031657600080fd5b50565b61421780620003296000396000f3fe608060405234801561001057600080fd5b50600436106101d95760003560e01c8063899ffef411610104578063c6bbdafb116100a2578063f04cfcea11610071578063f04cfcea14610530578063f607d9001461054c578063fc7b9c181461057c578063fe11edc91461059b576101d9565b8063c6bbdafb146104ac578063d289ade2146104c8578063da40385d146104e4578063e63bfadb14610500576101d9565b8063a7b5833f116100de578063a7b5833f14610414578063a9e0bef714610430578063bfef7bdf14610460578063c03852fb1461047c576101d9565b8063899ffef4146103a85780638da5cb5b146103c657806395fafa4a146103e4576101d9565b80634b955c381161017c5780636f9a0ca61161014b5780636f9a0ca614610334578063741853601461036457806379ba50971461036e57806383ce902214610378576101d9565b80634b955c38146102c05780634ed03526146102dc57806353a47bb7146102f8578063614d08f814610316576101d9565b806326e04f9d116101b857806326e04f9d146102485780632af64bd314610266578063375a7cba146102845780633c88ee18146102a2576101d9565b80628d3aca146101de57806304f3bcec1461020e5780631627540c1461022c575b600080fd5b6101f860048036036101f39190810190613262565b6105cb565b6040516102059190613c7f565b60405180910390f35b61021661061f565b6040516102239190613d74565b60405180910390f35b6102466004803603610241919081019061314e565b610645565b005b6102506106c8565b60405161025d9190613ed1565b60405180910390f35b61026e6106d8565b60405161027b9190613ce5565b60405180910390f35b61028c6108ad565b6040516102999190613c7f565b60405180910390f35b6102aa6108d3565b6040516102b79190613cc3565b60405180910390f35b6102da60048036036102d591908101906131dc565b6108ea565b005b6102f660048036036102f191908101906131dc565b610a13565b005b610300610a6c565b60405161030d9190613be9565b60405180910390f35b61031e610a92565b60405161032b9190613d00565b60405180910390f35b61034e600480360361034991908101906131a0565b610ab6565b60405161035b9190613ed1565b60405180910390f35b61036c610caa565b005b610376610e4b565b005b610392600480360361038d9190810190613262565b610ffd565b60405161039f9190613cc3565b60405180910390f35b6103b0611059565b6040516103bd9190613ca1565b60405180910390f35b6103ce61113f565b6040516103db9190613be9565b60405180910390f35b6103fe60048036036103f991908101906134a3565b611164565b60405161040b9190613c7f565b60405180910390f35b61042e600480360361042991908101906131a0565b6111a9565b005b61044a600480360361044591908101906131dc565b611229565b6040516104579190613cc3565b60405180910390f35b61047a600480360361047591908101906131dc565b61127d565b005b610496600480360361049191908101906132a7565b6112d3565b6040516104a39190613ed1565b60405180910390f35b6104c660048036036104c1919081019061342b565b6112fc565b005b6104e260048036036104dd919081019061339d565b611312565b005b6104fe60048036036104f991908101906131dc565b61132a565b005b61051a600480360361051591908101906132d0565b611383565b6040516105279190613be9565b60405180910390f35b61054a60048036036105459190810190613262565b6113b6565b005b610566600480360361056191908101906132a7565b611414565b6040516105739190613c7f565b60405180910390f35b610584611469565b604051610592929190613eec565b60405180910390f35b6105b560048036036105b09190810190613467565b611585565b6040516105c29190613c7f565b60405180910390f35b6060610617838380806020026020016040519081016040528093929190818152602001838360200280828437600081840152601f19601f820116905080830192505050505050506115a5565b905092915050565b600260009054906101000a900473ffffffffffffffffffffffffffffffffffffffff1681565b61064d611691565b80600160006101000a81548173ffffffffffffffffffffffffffffffffffffffff021916908373ffffffffffffffffffffffffffffffffffffffff1602179055507f906a1c6bd7e3091ea86693dd029a831c19049ce77f1dce2ce0bab1cacbabce22816040516106bd9190613be9565b60405180910390a150565b6000600460000180549050905090565b600060606106e4611059565b905060008090505b81518110156108a357600082828151811061070357fe5b602002602001015190506003600082815260200190815260200160002060009054906101000a900473ffffffffffffffffffffffffffffffffffffffff1673ffffffffffffffffffffffffffffffffffffffff16600260009054906101000a900473ffffffffffffffffffffffffffffffffffffffff1673ffffffffffffffffffffffffffffffffffffffff166321f8a721836040518263ffffffff1660e01b81526004016107b29190613d00565b60206040518083038186803b1580156107ca57600080fd5b505afa1580156107de573d6000803e3d6000fd5b505050506040513d601f19601f820116820180604052506108029190810190613177565b73ffffffffffffffffffffffffffffffffffffffff161415806108845750600073ffffffffffffffffffffffffffffffffffffffff166003600083815260200190815260200160002060009054906101000a900473ffffffffffffffffffffffffffffffffffffffff1673ffffffffffffffffffffffffffffffffffffffff16145b1561089557600093505050506108aa565b5080806001019150506106ec565b5060019150505b90565b60606108ce600060046000018054905060046117229092919063ffffffff16565b905090565b60606108e56108e06108ad565b611869565b905090565b6108f2611691565b600082829050905060005b81811015610a0d57600084848381811061091357fe5b9050602002016020610928919081019061314e565b9050600073ffffffffffffffffffffffffffffffffffffffff168173ffffffffffffffffffffffffffffffffffffffff16141561099a576040517f08c379a000000000000000000000000000000000000000000000000000000000815260040161099190613e31565b60405180910390fd5b6109ae816004611dba90919063ffffffff16565b6109ed576040517f08c379a00000000000000000000000000000000000000000000000000000000081526004016109e490613eb1565b60405180910390fd5b6109f681611e99565b6109ff81612021565b5080806001019150506108fd565b50505050565b610a1b611691565b600082829050905060005b81811015610a6657610a59848483818110610a3d57fe5b9050602002016020610a52919081019061314e565b6001612144565b8080600101915050610a26565b50505050565b600160009054906101000a900473ffffffffffffffffffffffffffffffffffffffff1681565b7f467574757265734d61726b65744d616e6167657200000000000000000000000081565b6000610ac0612428565b6000610aca612498565b90506000610ad66124c8565b73ffffffffffffffffffffffffffffffffffffffff16631b16802c867f73555344000000000000000000000000000000000000000000000000000000006040518363ffffffff1660e01b8152600401610b30929190613c2d565b606060405180830381600087803b158015610b4a57600080fd5b505af1158015610b5e573d6000803e3d6000fd5b505050506040513d601f19601f82011682018060405250610b8291908101906134f2565b5050905060008490508160001015610c20578273ffffffffffffffffffffffffffffffffffffffff166370a08231876040518263ffffffff1660e01b8152600401610bcd9190613be9565b60206040518083038186803b158015610be557600080fd5b505afa158015610bf9573d6000803e3d6000fd5b505050506040513d601f19601f82011682018060405250610c1d91908101906133c6565b90505b848110610c2d5784610c2f565b805b94508273ffffffffffffffffffffffffffffffffffffffff16639dc29fac87876040518363ffffffff1660e01b8152600401610c6c929190613c56565b600060405180830381600087803b158015610c8657600080fd5b505af1158015610c9a573d6000803e3d6000fd5b5050505084935050505092915050565b6060610cb4611059565b905060008090505b8151811015610e47576000828281518110610cd357fe5b602002602001015190506000600260009054906101000a900473ffffffffffffffffffffffffffffffffffffffff1673ffffffffffffffffffffffffffffffffffffffff1663dacb2d018384604051602001610d2f9190613bc3565b6040516020818303038152906040526040518363ffffffff1660e01b8152600401610d5b929190613d44565b60206040518083038186803b158015610d7357600080fd5b505afa158015610d87573d6000803e3d6000fd5b505050506040513d601f19601f82011682018060405250610dab9190810190613177565b9050806003600084815260200190815260200160002060006101000a81548173ffffffffffffffffffffffffffffffffffffffff021916908373ffffffffffffffffffffffffffffffffffffffff1602179055507f88a93678a3692f6789d9546fc621bf7234b101ddb7d4fe479455112831b8aa688282604051610e30929190613d1b565b60405180910390a150508080600101915050610cbc565b5050565b600160009054906101000a900473ffffffffffffffffffffffffffffffffffffffff1673ffffffffffffffffffffffffffffffffffffffff163373ffffffffffffffffffffffffffffffffffffffff1614610edb576040517f08c379a0000000000000000000000000000000000000000000000000000000008152600401610ed290613db1565b60405180910390fd5b7fb532073b38c83145e3e5135377a08bf9aab55bc0fd7c1179cd4fb995d2a5159c6000809054906101000a900473ffffffffffffffffffffffffffffffffffffffff16600160009054906101000a900473ffffffffffffffffffffffffffffffffffffffff16604051610f4f929190613c04565b60405180910390a1600160009054906101000a900473ffffffffffffffffffffffffffffffffffffffff166000806101000a81548173ffffffffffffffffffffffffffffffffffffffff021916908373ffffffffffffffffffffffffffffffffffffffff1602179055506000600160006101000a81548173ffffffffffffffffffffffffffffffffffffffff021916908373ffffffffffffffffffffffffffffffffffffffff160217905550565b606061105161104c848480806020026020016040519081016040528093929190818152602001838360200280828437600081840152601f19601f820116905080830192505050505050506115a5565b611869565b905092915050565b6060600360405190808252806020026020018201604052801561108b5781602001602082028038833980820191505090505b5090507f53796e7468735553440000000000000000000000000000000000000000000000816000815181106110bc57fe5b6020026020010181815250507f466565506f6f6c00000000000000000000000000000000000000000000000000816001815181106110f657fe5b6020026020010181815250507f45786368616e67657200000000000000000000000000000000000000000000008160028151811061113057fe5b60200260200101818152505090565b6000809054906101000a900473ffffffffffffffffffffffffffffffffffffffff1681565b6060811561118957611182848460086117229092919063ffffffff16565b90506111a2565b61119f848460066117229092919063ffffffff16565b90505b9392505050565b6111b1612428565b6111b9612498565b73ffffffffffffffffffffffffffffffffffffffff1663867904b483836040518363ffffffff1660e01b81526004016111f3929190613c56565b600060405180830381600087803b15801561120d57600080fd5b505af1158015611221573d6000803e3d6000fd5b505050505050565b6060611275838380806020026020016040519081016040528093929190818152602001838360200280828437600081840152601f19601f82011690508083019250505050505050611869565b905092915050565b611285611691565b6112cf828280806020026020016040519081016040528093929190818152602001838360200280828437600081840152601f19601f820116905080830192505050505050506124f8565b5050565b600081156112eb5760086000018054905090506112f7565b60066000018054905090505b919050565b611304612428565b61130e8282612820565b5050565b61131a612428565b611327816000801b612820565b50565b611332611691565b600082829050905060005b8181101561137d5761137084848381811061135457fe5b9050602002016020611369919081019061314e565b6000612144565b808060010191505061133d565b50505050565b600a6020528060005260406000206000915054906101000a900473ffffffffffffffffffffffffffffffffffffffff1681565b6113be611691565b61141061140b838380806020026020016040519081016040528093929190818152602001838360200280828437600081840152601f19601f820116905080830192505050505050506115a5565b6124f8565b5050565b606081156114425761143b600060086000018054905060086117229092919063ffffffff16565b9050611464565b611461600060066000018054905060066117229092919063ffffffff16565b90505b919050565b6000806000806000600460000180549050905060008090505b81811015611577576000806004600001838154811061149d57fe5b9060005260206000200160009054906101000a900473ffffffffffffffffffffffffffffffffffffffff1673ffffffffffffffffffffffffffffffffffffffff1663e8c634706040518163ffffffff1660e01b8152600401604080518083038186803b15801561150c57600080fd5b505afa158015611520573d6000803e3d6000fd5b505050506040513d601f19601f8201168201806040525061154491908101906133ef565b9150915061155b828761299190919063ffffffff16565b955084806115665750805b945050508080600101915050611482565b508282945094505050509091565b606061159d838360046117229092919063ffffffff16565b905092915050565b60606000825190506060816040519080825280602002602001820160405280156115de5781602001602082028038833980820191505090505b50905060005b8281101561168657600a60008683815181106115fc57fe5b6020026020010151815260200190815260200160002060009054906101000a900473ffffffffffffffffffffffffffffffffffffffff1682828151811061163f57fe5b602002602001019073ffffffffffffffffffffffffffffffffffffffff16908173ffffffffffffffffffffffffffffffffffffffff168152505080806001019150506115e4565b508092505050919050565b6000809054906101000a900473ffffffffffffffffffffffffffffffffffffffff1673ffffffffffffffffffffffffffffffffffffffff163373ffffffffffffffffffffffffffffffffffffffff1614611720576040517f08c379a000000000000000000000000000000000000000000000000000000000815260040161171790613e51565b60405180910390fd5b565b606060008284019050846000018054905081111561174557846000018054905090505b83811161178557600060405190808252806020026020018201604052801561177c5781602001602082028038833980820191505090505b50915050611862565b600084820390506060816040519080825280602002602001820160405280156117bd5781602001602082028038833980820191505090505b50905060005b8281101561185a5787600001878201815481106117dc57fe5b9060005260206000200160009054906101000a900473ffffffffffffffffffffffffffffffffffffffff1682828151811061181357fe5b602002602001019073ffffffffffffffffffffffffffffffffffffffff16908173ffffffffffffffffffffffffffffffffffffffff168152505080806001019150506117c3565b508093505050505b9392505050565b60606000825190506060816040519080825280602002602001820160405280156118ad57816020015b61189a612dc3565b8152602001906001900390816118925790505b50905060005b82811015611daf5760008582815181106118c957fe5b6020026020010151905060008173ffffffffffffffffffffffffffffffffffffffff1663d7103a466040518163ffffffff1660e01b815260040160206040518083038186803b15801561191b57600080fd5b505afa15801561192f573d6000803e3d6000fd5b505050506040513d601f19601f8201168201806040525061195391908101906132f9565b905060008273ffffffffffffffffffffffffffffffffffffffff1663cdf456e16040518163ffffffff1660e01b815260040160206040518083038186803b15801561199d57600080fd5b505afa1580156119b1573d6000803e3d6000fd5b505050506040513d601f19601f820116820180604052506119d591908101906132f9565b90506000808473ffffffffffffffffffffffffffffffffffffffff1663d24378eb6040518163ffffffff1660e01b8152600401604080518083038186803b158015611a1f57600080fd5b505afa158015611a33573d6000803e3d6000fd5b505050506040513d601f19601f82011682018060405250611a5791908101906133ef565b9150915060008573ffffffffffffffffffffffffffffffffffffffff1663e8c634706040518163ffffffff1660e01b8152600401604080518083038186803b158015611aa257600080fd5b505afa158015611ab6573d6000803e3d6000fd5b505050506040513d601f19601f82011682018060405250611ada91908101906133ef565b5090506000611b068c8981518110611aee57fe5b60200260200101516008611dba90919063ffffffff16565b90506040518061016001604052808873ffffffffffffffffffffffffffffffffffffffff1681526020018681526020018781526020018581526020018873ffffffffffffffffffffffffffffffffffffffff1663eb56105d6040518163ffffffff1660e01b815260040160206040518083038186803b158015611b8857600080fd5b505afa158015611b9c573d6000803e3d6000fd5b505050506040513d601f19601f82011682018060405250611bc09190810190613374565b6fffffffffffffffffffffffffffffffff1681526020018873ffffffffffffffffffffffffffffffffffffffff16632b58ecef6040518163ffffffff1660e01b815260040160206040518083038186803b158015611c1d57600080fd5b505afa158015611c31573d6000803e3d6000fd5b505050506040513d601f19601f82011682018060405250611c559190810190613322565b600f0b81526020018381526020018873ffffffffffffffffffffffffffffffffffffffff16633aef4d0b6040518163ffffffff1660e01b815260040160206040518083038186803b158015611ca957600080fd5b505afa158015611cbd573d6000803e3d6000fd5b505050506040513d601f19601f82011682018060405250611ce1919081019061334b565b815260200182611cf2576000611d71565b8873ffffffffffffffffffffffffffffffffffffffff1663b74e38066040518163ffffffff1660e01b815260040160206040518083038186803b158015611d3857600080fd5b505afa158015611d4c573d6000803e3d6000fd5b505050506040513d601f19601f82011682018060405250611d70919081019061334b565b5b81526020018415158152602001821515815250898981518110611d9057fe5b60200260200101819052505050505050505080806001019150506118b3565b508092505050919050565b60008083600001805490501415611dd45760009050611e93565b60008360010160008473ffffffffffffffffffffffffffffffffffffffff1673ffffffffffffffffffffffffffffffffffffffff168152602001908152602001600020549050600081141580611e8f57508273ffffffffffffffffffffffffffffffffffffffff1684600001600081548110611e4c57fe5b9060005260206000200160009054906101000a900473ffffffffffffffffffffffffffffffffffffffff1673ffffffffffffffffffffffffffffffffffffffff16145b9150505b92915050565b6060600d60008373ffffffffffffffffffffffffffffffffffffffff1673ffffffffffffffffffffffffffffffffffffffff168152602001908152602001600020805480602002602001604051908101604052809291908181526020018280548015611f5a57602002820191906000526020600020905b8160009054906101000a900473ffffffffffffffffffffffffffffffffffffffff1673ffffffffffffffffffffffffffffffffffffffff1681526020019060010190808311611f10575b5050505050905060008090505b8151811015611fd157611f97828281518110611f7f57fe5b6020026020010151600b611dba90919063ffffffff16565b15611fc457611fc3828281518110611fab57fe5b6020026020010151600b6129e690919063ffffffff16565b5b8080600101915050611f67565b50600d60008373ffffffffffffffffffffffffffffffffffffffff1673ffffffffffffffffffffffffffffffffffffffff168152602001908152602001600020600061201d9190612e3d565b5050565b60608173ffffffffffffffffffffffffffffffffffffffff16631d46021f6040518163ffffffff1660e01b815260040160006040518083038186803b15801561206957600080fd5b505afa15801561207d573d6000803e3d6000fd5b505050506040513d6000823e3d601f19601f820116820180604052506120a69190810190613221565b905060008090505b81518110156120eb576120de8282815181106120c657fe5b6020026020010151600b612bf690919063ffffffff16565b80806001019150506120ae565b5080600d60008473ffffffffffffffffffffffffffffffffffffffff1673ffffffffffffffffffffffffffffffffffffffff168152602001908152602001600020908051906020019061213f929190612e5e565b505050565b61214c611691565b612160826004611dba90919063ffffffff16565b156121a0576040517f08c379a000000000000000000000000000000000000000000000000000000000815260040161219790613e11565b60405180910390fd5b60008273ffffffffffffffffffffffffffffffffffffffff1663d7103a466040518163ffffffff1660e01b815260040160206040518083038186803b1580156121e857600080fd5b505afa1580156121fc573d6000803e3d6000fd5b505050506040513d601f19601f8201168201806040525061222091908101906132f9565b905060008373ffffffffffffffffffffffffffffffffffffffff1663cdf456e16040518163ffffffff1660e01b815260040160206040518083038186803b15801561226a57600080fd5b505afa15801561227e573d6000803e3d6000fd5b505050506040513d601f19601f820116820180604052506122a291908101906132f9565b9050600073ffffffffffffffffffffffffffffffffffffffff16600a600084815260200190815260200160002060009054906101000a900473ffffffffffffffffffffffffffffffffffffffff1673ffffffffffffffffffffffffffffffffffffffff1614612346576040517f08c379a000000000000000000000000000000000000000000000000000000000815260040161233d90613e71565b60405180910390fd5b83600a600084815260200190815260200160002060006101000a81548173ffffffffffffffffffffffffffffffffffffffff021916908373ffffffffffffffffffffffffffffffffffffffff1602179055506123ac846004612bf690919063ffffffff16565b82156123d4576123c6846008612bf690919063ffffffff16565b6123cf84612021565b6123e9565b6123e8846006612bf690919063ffffffff16565b5b81817f96bfb0243b17c28e58d33656cd16adf56e92fc6bbeedab19c4a1c56f585274d68660405161241a9190613be9565b60405180910390a350505050565b61243c336006611dba90919063ffffffff16565b80612457575061245633600b611dba90919063ffffffff16565b5b612496576040517f08c379a000000000000000000000000000000000000000000000000000000000815260040161248d90613e91565b60405180910390fd5b565b60006124c37f53796e7468735553440000000000000000000000000000000000000000000000612cbe565b905090565b60006124f37f45786368616e6765720000000000000000000000000000000000000000000000612cbe565b905090565b60008151905060005b8181101561281b57600083828151811061251757fe5b60200260200101519050600073ffffffffffffffffffffffffffffffffffffffff168173ffffffffffffffffffffffffffffffffffffffff161415612591576040517f08c379a000000000000000000000000000000000000000000000000000000000815260040161258890613eb1565b60405180910390fd5b60008173ffffffffffffffffffffffffffffffffffffffff1663d7103a466040518163ffffffff1660e01b815260040160206040518083038186803b1580156125d957600080fd5b505afa1580156125ed573d6000803e3d6000fd5b505050506040513d601f19601f8201168201806040525061261191908101906132f9565b905060008273ffffffffffffffffffffffffffffffffffffffff1663cdf456e16040518163ffffffff1660e01b815260040160206040518083038186803b15801561265b57600080fd5b505afa15801561266f573d6000803e3d6000fd5b505050506040513d601f19601f8201168201806040525061269391908101906132f9565b9050600073ffffffffffffffffffffffffffffffffffffffff16600a600084815260200190815260200160002060009054906101000a900473ffffffffffffffffffffffffffffffffffffffff1673ffffffffffffffffffffffffffffffffffffffff161415612738576040517f08c379a000000000000000000000000000000000000000000000000000000000815260040161272f90613eb1565b60405180910390fd5b61274c836008611dba90919063ffffffff16565b156127735761275a83611e99565b61276e8360086129e690919063ffffffff16565b612788565b6127878360066129e690919063ffffffff16565b5b600a600083815260200190815260200160002060006101000a81549073ffffffffffffffffffffffffffffffffffffffff02191690556127d28360046129e690919063ffffffff16565b81817fce64c0b68d87b6796835a03e01a9e3935b8ed965b01df87766b1e5e35ab44bfd856040516128039190613be9565b60405180910390a35050508080600101915050612501565b505050565b60009050600061282e612d93565b9050612838612498565b73ffffffffffffffffffffffffffffffffffffffff1663867904b48273ffffffffffffffffffffffffffffffffffffffff1663eb1edd616040518163ffffffff1660e01b815260040160206040518083038186803b15801561289957600080fd5b505afa1580156128ad573d6000803e3d6000fd5b505050506040513d601f19601f820116820180604052506128d19190810190613177565b856040518363ffffffff1660e01b81526004016128ef929190613c56565b600060405180830381600087803b15801561290957600080fd5b505af115801561291d573d6000803e3d6000fd5b505050508073ffffffffffffffffffffffffffffffffffffffff166322bf55ef846040518263ffffffff1660e01b815260040161295a9190613ed1565b600060405180830381600087803b15801561297457600080fd5b505af1158015612988573d6000803e3d6000fd5b50505050505050565b6000808284019050838110156129dc576040517f08c379a00000000000000000000000000000000000000000000000000000000081526004016129d390613dd1565b60405180910390fd5b8091505092915050565b6129f08282611dba565b612a2f576040517f08c379a0000000000000000000000000000000000000000000000000000000008152600401612a2690613df1565b60405180910390fd5b60008260010160008373ffffffffffffffffffffffffffffffffffffffff1673ffffffffffffffffffffffffffffffffffffffff168152602001908152602001600020549050600060018460000180549050039050808214612b69576000846000018281548110612a9c57fe5b9060005260206000200160009054906101000a900473ffffffffffffffffffffffffffffffffffffffff16905080856000018481548110612ad957fe5b9060005260206000200160006101000a81548173ffffffffffffffffffffffffffffffffffffffff021916908373ffffffffffffffffffffffffffffffffffffffff160217905550828560010160008373ffffffffffffffffffffffffffffffffffffffff1673ffffffffffffffffffffffffffffffffffffffff16815260200190815260200160002081905550505b83600001805480612b7657fe5b6001900381819060005260206000200160006101000a81549073ffffffffffffffffffffffffffffffffffffffff021916905590558360010160008473ffffffffffffffffffffffffffffffffffffffff1673ffffffffffffffffffffffffffffffffffffffff1681526020019081526020016000206000905550505050565b612c008282611dba565b612cba5781600001805490508260010160008373ffffffffffffffffffffffffffffffffffffffff1673ffffffffffffffffffffffffffffffffffffffff16815260200190815260200160002081905550816000018190806001815401808255809150509060018203906000526020600020016000909192909190916101000a81548173ffffffffffffffffffffffffffffffffffffffff021916908373ffffffffffffffffffffffffffffffffffffffff160217905550505b5050565b6000806003600084815260200190815260200160002060009054906101000a900473ffffffffffffffffffffffffffffffffffffffff169050600073ffffffffffffffffffffffffffffffffffffffff168173ffffffffffffffffffffffffffffffffffffffff16141583604051602001612d399190613b9d565b60405160208183030381529060405290612d89576040517f08c379a0000000000000000000000000000000000000000000000000000000008152600401612d809190613d8f565b60405180910390fd5b5080915050919050565b6000612dbe7f466565506f6f6c00000000000000000000000000000000000000000000000000612cbe565b905090565b604051806101600160405280600073ffffffffffffffffffffffffffffffffffffffff16815260200160008019168152602001600080191681526020016000815260200160008152602001600081526020016000815260200160008152602001600081526020016000151581526020016000151581525090565b5080546000825590600052602060002090810190612e5b9190612ee8565b50565b828054828255906000526020600020908101928215612ed7579160200282015b82811115612ed65782518260006101000a81548173ffffffffffffffffffffffffffffffffffffffff021916908373ffffffffffffffffffffffffffffffffffffffff16021790555091602001919060010190612e7e565b5b509050612ee49190612f0d565b5090565b612f0a91905b80821115612f06576000816000905550600101612eee565b5090565b90565b612f4d91905b80821115612f4957600081816101000a81549073ffffffffffffffffffffffffffffffffffffffff021916905550600101612f13565b5090565b90565b600081359050612f5f81614133565b92915050565b600081519050612f7481614133565b92915050565b60008083601f840112612f8c57600080fd5b8235905067ffffffffffffffff811115612fa557600080fd5b602083019150836020820283011115612fbd57600080fd5b9250929050565b600082601f830112612fd557600080fd5b8151612fe8612fe382613f42565b613f15565b9150818183526020840193506020810190508385602084028201111561300d57600080fd5b60005b8381101561303d57816130238882612f65565b845260208401935060208301925050600181019050613010565b5050505092915050565b60008083601f84011261305957600080fd5b8235905067ffffffffffffffff81111561307257600080fd5b60208301915083602082028301111561308a57600080fd5b9250929050565b6000813590506130a08161414a565b92915050565b6000815190506130b58161414a565b92915050565b6000813590506130ca81614161565b92915050565b6000815190506130df81614161565b92915050565b6000815190506130f481614178565b92915050565b6000815190506131098161418f565b92915050565b60008151905061311e816141a6565b92915050565b600081359050613133816141bd565b92915050565b600081519050613148816141bd565b92915050565b60006020828403121561316057600080fd5b600061316e84828501612f50565b91505092915050565b60006020828403121561318957600080fd5b600061319784828501612f65565b91505092915050565b600080604083850312156131b357600080fd5b60006131c185828601612f50565b92505060206131d285828601613124565b9150509250929050565b600080602083850312156131ef57600080fd5b600083013567ffffffffffffffff81111561320957600080fd5b61321585828601612f7a565b92509250509250929050565b60006020828403121561323357600080fd5b600082015167ffffffffffffffff81111561324d57600080fd5b61325984828501612fc4565b91505092915050565b6000806020838503121561327557600080fd5b600083013567ffffffffffffffff81111561328f57600080fd5b61329b85828601613047565b92509250509250929050565b6000602082840312156132b957600080fd5b60006132c784828501613091565b91505092915050565b6000602082840312156132e257600080fd5b60006132f0848285016130bb565b91505092915050565b60006020828403121561330b57600080fd5b6000613319848285016130d0565b91505092915050565b60006020828403121561333457600080fd5b6000613342848285016130e5565b91505092915050565b60006020828403121561335d57600080fd5b600061336b848285016130fa565b91505092915050565b60006020828403121561338657600080fd5b60006133948482850161310f565b91505092915050565b6000602082840312156133af57600080fd5b60006133bd84828501613124565b91505092915050565b6000602082840312156133d857600080fd5b60006133e684828501613139565b91505092915050565b6000806040838503121561340257600080fd5b600061341085828601613139565b9250506020613421858286016130a6565b9150509250929050565b6000806040838503121561343e57600080fd5b600061344c85828601613124565b925050602061345d858286016130bb565b9150509250929050565b6000806040838503121561347a57600080fd5b600061348885828601613124565b925050602061349985828601613124565b9150509250929050565b6000806000606084860312156134b857600080fd5b60006134c686828701613124565b93505060206134d786828701613124565b92505060406134e886828701613091565b9150509250925092565b60008060006060848603121561350757600080fd5b600061351586828701613139565b935050602061352686828701613139565b925050604061353786828701613139565b9150509250925092565b600061354d838361358a565b60208301905092915050565b600061356583836136e0565b60208301905092915050565b600061357d8383613a9e565b6101608301905092915050565b6135938161403c565b82525050565b6135a28161403c565b82525050565b60006135b382613f9a565b6135bd8185613fed565b93506135c883613f6a565b8060005b838110156135f95781516135e08882613541565b97506135eb83613fc6565b9250506001810190506135cc565b5085935050505092915050565b600061361182613fa5565b61361b8185613ffe565b935061362683613f7a565b8060005b8381101561365757815161363e8882613559565b975061364983613fd3565b92505060018101905061362a565b5085935050505092915050565b600061366f82613fb0565b613679818561400f565b935061368483613f8a565b8060005b838110156136b557815161369c8882613571565b97506136a783613fe0565b925050600181019050613688565b5085935050505092915050565b6136cb8161404e565b82525050565b6136da8161404e565b82525050565b6136e98161405a565b82525050565b6136f88161405a565b82525050565b61370f61370a8261405a565b614118565b82525050565b61371e816140c1565b82525050565b61372d81614071565b82525050565b600061373e82613fbb565b6137488185614020565b93506137588185602086016140e5565b61376181614122565b840191505092915050565b6000613779603583614020565b91507f596f75206d757374206265206e6f6d696e61746564206265666f726520796f7560008301527f2063616e20616363657074206f776e65727368697000000000000000000000006020830152604082019050919050565b60006137df601b83614020565b91507f536166654d6174683a206164646974696f6e206f766572666c6f7700000000006000830152602082019050919050565b600061381f601383614020565b91507f456c656d656e74206e6f7420696e207365742e000000000000000000000000006000830152602082019050919050565b600061385f601583614020565b91507f4d61726b657420616c72656164792065786973747300000000000000000000006000830152602082019050919050565b600061389f601183614031565b91507f4d697373696e6720616464726573733a200000000000000000000000000000006000830152601182019050919050565b60006138df600e83614020565b91507f496e76616c6964206d61726b65740000000000000000000000000000000000006000830152602082019050919050565b600061391f602f83614020565b91507f4f6e6c792074686520636f6e7472616374206f776e6572206d6179207065726660008301527f6f726d207468697320616374696f6e00000000000000000000000000000000006020830152604082019050919050565b6000613985601d83614020565b91507f4d61726b657420616c72656164792065786973747320666f72206b65790000006000830152602082019050919050565b60006139c5601983614031565b91507f5265736f6c766572206d697373696e67207461726765743a20000000000000006000830152601982019050919050565b6000613a05602983614020565b91507f5065726d6974746564206f6e6c7920666f72206d61726b657420696d706c656d60008301527f656e746174696f6e7300000000000000000000000000000000000000000000006020830152604082019050919050565b6000613a6b600e83614020565b91507f556e6b6e6f776e206d61726b65740000000000000000000000000000000000006000830152602082019050919050565b61016082016000820151613ab5600085018261358a565b506020820151613ac860208501826136e0565b506040820151613adb60408501826136e0565b506060820151613aee6060850182613b7f565b506080820151613b016080850182613b7f565b5060a0820151613b1460a0850182613724565b5060c0820151613b2760c0850182613b7f565b5060e0820151613b3a60e0850182613724565b50610100820151613b4f610100850182613724565b50610120820151613b646101208501826136c2565b50610140820151613b796101408501826136c2565b50505050565b613b88816140b7565b82525050565b613b97816140b7565b82525050565b6000613ba882613892565b9150613bb482846136fe565b60208201915081905092915050565b6000613bce826139b8565b9150613bda82846136fe565b60208201915081905092915050565b6000602082019050613bfe6000830184613599565b92915050565b6000604082019050613c196000830185613599565b613c266020830184613599565b9392505050565b6000604082019050613c426000830185613599565b613c4f60208301846136ef565b9392505050565b6000604082019050613c6b6000830185613599565b613c786020830184613b8e565b9392505050565b60006020820190508181036000830152613c9981846135a8565b905092915050565b60006020820190508181036000830152613cbb8184613606565b905092915050565b60006020820190508181036000830152613cdd8184613664565b905092915050565b6000602082019050613cfa60008301846136d1565b92915050565b6000602082019050613d1560008301846136ef565b92915050565b6000604082019050613d3060008301856136ef565b613d3d6020830184613599565b9392505050565b6000604082019050613d5960008301856136ef565b8181036020830152613d6b8184613733565b90509392505050565b6000602082019050613d896000830184613715565b92915050565b60006020820190508181036000830152613da98184613733565b905092915050565b60006020820190508181036000830152613dca8161376c565b9050919050565b60006020820190508181036000830152613dea816137d2565b9050919050565b60006020820190508181036000830152613e0a81613812565b9050919050565b60006020820190508181036000830152613e2a81613852565b9050919050565b60006020820190508181036000830152613e4a816138d2565b9050919050565b60006020820190508181036000830152613e6a81613912565b9050919050565b60006020820190508181036000830152613e8a81613978565b9050919050565b60006020820190508181036000830152613eaa816139f8565b9050919050565b60006020820190508181036000830152613eca81613a5e565b9050919050565b6000602082019050613ee66000830184613b8e565b92915050565b6000604082019050613f016000830185613b8e565b613f0e60208301846136d1565b9392505050565b6000604051905081810181811067ffffffffffffffff82111715613f3857600080fd5b8060405250919050565b600067ffffffffffffffff821115613f5957600080fd5b602082029050602081019050919050565b6000819050602082019050919050565b6000819050602082019050919050565b6000819050602082019050919050565b600081519050919050565b600081519050919050565b600081519050919050565b600081519050919050565b6000602082019050919050565b6000602082019050919050565b6000602082019050919050565b600082825260208201905092915050565b600082825260208201905092915050565b600082825260208201905092915050565b600082825260208201905092915050565b600081905092915050565b600061404782614097565b9050919050565b60008115159050919050565b6000819050919050565b600081600f0b9050919050565b6000819050919050565b60006fffffffffffffffffffffffffffffffff82169050919050565b600073ffffffffffffffffffffffffffffffffffffffff82169050919050565b6000819050919050565b60006140cc826140d3565b9050919050565b60006140de82614097565b9050919050565b60005b838110156141035780820151818401526020810190506140e8565b83811115614112576000848401525b50505050565b6000819050919050565b6000601f19601f8301169050919050565b61413c8161403c565b811461414757600080fd5b50565b6141538161404e565b811461415e57600080fd5b50565b61416a8161405a565b811461417557600080fd5b50565b61418181614064565b811461418c57600080fd5b50565b61419881614071565b81146141a357600080fd5b50565b6141af8161407b565b81146141ba57600080fd5b50565b6141c6816140b7565b81146141d157600080fd5b5056fea365627a7a72315820d52b966f49509be3f0f6fd79028defb57eb6a8ac6ff7489b0bea17a88477e7da6c6578706572696d656e74616cf564736f6c63430005100040",
  "linkReferences": {},
  "deployedLinkReferences": {}
}