{
  "_format": "hh-sol-artifact-1",
  "contractName": "FuturesMarketManager",
  "sourceName": "contracts/FuturesMarketManager.sol",
  "abi": [
    {
      "inputs": [
        {
          "internalType": "address",
          "name": "_owner",
          "type": "address"
        },
        {
          "internalType": "address",
          "name": "_resolver",
          "type": "address"
        }
      ],
      "payable": false,
      "stateMutability": "nonpayable",
      "type": "constructor"
    },
    {
      "anonymous": false,
      "inputs": [
        {
          "indexed": false,
          "internalType": "bytes32",
          "name": "name",
          "type": "bytes32"
        },
        {
          "indexed": false,
          "internalType": "address",
          "name": "destination",
          "type": "address"
        }
      ],
      "name": "CacheUpdated",
      "type": "event"
    },
    {
      "anonymous": false,
      "inputs": [
        {
          "indexed": false,
          "internalType": "address",
          "name": "market",
          "type": "address"
        },
        {
          "indexed": true,
          "internalType": "bytes32",
          "name": "asset",
          "type": "bytes32"
        },
        {
          "indexed": true,
          "internalType": "bytes32",
          "name": "marketKey",
          "type": "bytes32"
        }
      ],
      "name": "MarketAdded",
      "type": "event"
    },
    {
      "anonymous": false,
      "inputs": [
        {
          "indexed": false,
          "internalType": "address",
          "name": "market",
          "type": "address"
        },
        {
          "indexed": true,
          "internalType": "bytes32",
          "name": "asset",
          "type": "bytes32"
        },
        {
          "indexed": true,
          "internalType": "bytes32",
          "name": "marketKey",
          "type": "bytes32"
        }
      ],
      "name": "MarketRemoved",
      "type": "event"
    },
    {
      "anonymous": false,
      "inputs": [
        {
          "indexed": false,
          "internalType": "address",
          "name": "oldOwner",
          "type": "address"
        },
        {
          "indexed": false,
          "internalType": "address",
          "name": "newOwner",
          "type": "address"
        }
      ],
      "name": "OwnerChanged",
      "type": "event"
    },
    {
      "anonymous": false,
      "inputs": [
        {
          "indexed": false,
          "internalType": "address",
          "name": "newOwner",
          "type": "address"
        }
      ],
      "name": "OwnerNominated",
      "type": "event"
    },
    {
      "constant": true,
      "inputs": [],
      "name": "CONTRACT_NAME",
      "outputs": [
        {
          "internalType": "bytes32",
          "name": "",
          "type": "bytes32"
        }
      ],
      "payable": false,
      "stateMutability": "view",
      "type": "function"
    },
    {
      "constant": false,
      "inputs": [],
      "name": "acceptOwnership",
      "outputs": [],
      "payable": false,
      "stateMutability": "nonpayable",
      "type": "function"
    },
    {
      "constant": false,
      "inputs": [
        {
          "internalType": "address[]",
          "name": "marketsToAdd",
          "type": "address[]"
        }
      ],
      "name": "addMarkets",
      "outputs": [],
      "payable": false,
      "stateMutability": "nonpayable",
      "type": "function"
    },
    {
      "constant": false,
      "inputs": [
        {
          "internalType": "address[]",
          "name": "marketsToAdd",
          "type": "address[]"
        }
      ],
      "name": "addProxiedMarkets",
      "outputs": [],
      "payable": false,
      "stateMutability": "nonpayable",
      "type": "function"
    },
    {
      "constant": true,
      "inputs": [],
      "name": "allMarketSummaries",
      "outputs": [
        {
          "components": [
            {
              "internalType": "address",
              "name": "market",
              "type": "address"
            },
            {
              "internalType": "bytes32",
              "name": "asset",
              "type": "bytes32"
            },
            {
              "internalType": "bytes32",
              "name": "marketKey",
              "type": "bytes32"
            },
            {
              "internalType": "uint256",
              "name": "price",
              "type": "uint256"
            },
            {
              "internalType": "uint256",
              "name": "marketSize",
              "type": "uint256"
            },
            {
              "internalType": "int256",
              "name": "marketSkew",
              "type": "int256"
            },
            {
              "internalType": "uint256",
              "name": "marketDebt",
              "type": "uint256"
            },
            {
              "internalType": "int256",
              "name": "currentFundingRate",
              "type": "int256"
            },
            {
              "internalType": "bool",
              "name": "priceInvalid",
              "type": "bool"
            },
            {
              "internalType": "bool",
              "name": "proxied",
              "type": "bool"
            }
          ],
          "internalType": "struct FuturesMarketManager.MarketSummary[]",
          "name": "",
          "type": "tuple[]"
        }
      ],
      "payable": false,
      "stateMutability": "view",
      "type": "function"
    },
    {
      "constant": true,
      "inputs": [],
      "name": "allMarkets",
      "outputs": [
        {
          "internalType": "address[]",
          "name": "",
          "type": "address[]"
        }
      ],
      "payable": false,
      "stateMutability": "view",
      "type": "function"
    },
    {
      "constant": true,
      "inputs": [
        {
          "internalType": "bool",
          "name": "proxiedMarkets",
          "type": "bool"
        }
      ],
      "name": "allMarkets",
      "outputs": [
        {
          "internalType": "address[]",
          "name": "",
          "type": "address[]"
        }
      ],
      "payable": false,
      "stateMutability": "view",
      "type": "function"
    },
    {
      "constant": false,
      "inputs": [
        {
          "internalType": "address",
          "name": "account",
          "type": "address"
        },
        {
          "internalType": "uint256",
          "name": "amount",
          "type": "uint256"
        }
      ],
      "name": "burnSUSD",
      "outputs": [
        {
          "internalType": "uint256",
          "name": "postReclamationAmount",
          "type": "uint256"
        }
      ],
      "payable": false,
      "stateMutability": "nonpayable",
      "type": "function"
    },
    {
      "constant": true,
      "inputs": [],
      "name": "isResolverCached",
      "outputs": [
        {
          "internalType": "bool",
          "name": "",
          "type": "bool"
        }
      ],
      "payable": false,
      "stateMutability": "view",
      "type": "function"
    },
    {
      "constant": false,
      "inputs": [
        {
          "internalType": "address",
          "name": "account",
          "type": "address"
        },
        {
          "internalType": "uint256",
          "name": "amount",
          "type": "uint256"
        }
      ],
      "name": "issueSUSD",
      "outputs": [],
      "payable": false,
      "stateMutability": "nonpayable",
      "type": "function"
    },
    {
      "constant": true,
      "inputs": [
        {
          "internalType": "bytes32",
          "name": "",
          "type": "bytes32"
        }
      ],
      "name": "marketForKey",
      "outputs": [
        {
          "internalType": "address",
          "name": "",
          "type": "address"
        }
      ],
      "payable": false,
      "stateMutability": "view",
      "type": "function"
    },
    {
      "constant": true,
      "inputs": [
        {
          "internalType": "address[]",
          "name": "addresses",
          "type": "address[]"
        }
      ],
      "name": "marketSummaries",
      "outputs": [
        {
          "components": [
            {
              "internalType": "address",
              "name": "market",
              "type": "address"
            },
            {
              "internalType": "bytes32",
              "name": "asset",
              "type": "bytes32"
            },
            {
              "internalType": "bytes32",
              "name": "marketKey",
              "type": "bytes32"
            },
            {
              "internalType": "uint256",
              "name": "price",
              "type": "uint256"
            },
            {
              "internalType": "uint256",
              "name": "marketSize",
              "type": "uint256"
            },
            {
              "internalType": "int256",
              "name": "marketSkew",
              "type": "int256"
            },
            {
              "internalType": "uint256",
              "name": "marketDebt",
              "type": "uint256"
            },
            {
              "internalType": "int256",
              "name": "currentFundingRate",
              "type": "int256"
            },
            {
              "internalType": "bool",
              "name": "priceInvalid",
              "type": "bool"
            },
            {
              "internalType": "bool",
              "name": "proxied",
              "type": "bool"
            }
          ],
          "internalType": "struct FuturesMarketManager.MarketSummary[]",
          "name": "",
          "type": "tuple[]"
        }
      ],
      "payable": false,
      "stateMutability": "view",
      "type": "function"
    },
    {
      "constant": true,
      "inputs": [
        {
          "internalType": "bytes32[]",
          "name": "marketKeys",
          "type": "bytes32[]"
        }
      ],
      "name": "marketSummariesForKeys",
      "outputs": [
        {
          "components": [
            {
              "internalType": "address",
              "name": "market",
              "type": "address"
            },
            {
              "internalType": "bytes32",
              "name": "asset",
              "type": "bytes32"
            },
            {
              "internalType": "bytes32",
              "name": "marketKey",
              "type": "bytes32"
            },
            {
              "internalType": "uint256",
              "name": "price",
              "type": "uint256"
            },
            {
              "internalType": "uint256",
              "name": "marketSize",
              "type": "uint256"
            },
            {
              "internalType": "int256",
              "name": "marketSkew",
              "type": "int256"
            },
            {
              "internalType": "uint256",
              "name": "marketDebt",
              "type": "uint256"
            },
            {
              "internalType": "int256",
              "name": "currentFundingRate",
              "type": "int256"
            },
            {
              "internalType": "bool",
              "name": "priceInvalid",
              "type": "bool"
            },
            {
              "internalType": "bool",
              "name": "proxied",
              "type": "bool"
            }
          ],
          "internalType": "struct FuturesMarketManager.MarketSummary[]",
          "name": "",
          "type": "tuple[]"
        }
      ],
      "payable": false,
      "stateMutability": "view",
      "type": "function"
    },
    {
      "constant": true,
      "inputs": [
        {
          "internalType": "uint256",
          "name": "index",
          "type": "uint256"
        },
        {
          "internalType": "uint256",
          "name": "pageSize",
          "type": "uint256"
        },
        {
          "internalType": "bool",
          "name": "proxiedMarkets",
          "type": "bool"
        }
      ],
      "name": "markets",
      "outputs": [
        {
          "internalType": "address[]",
          "name": "",
          "type": "address[]"
        }
      ],
      "payable": false,
      "stateMutability": "view",
      "type": "function"
    },
    {
      "constant": true,
      "inputs": [
        {
          "internalType": "uint256",
          "name": "index",
          "type": "uint256"
        },
        {
          "internalType": "uint256",
          "name": "pageSize",
          "type": "uint256"
        }
      ],
      "name": "markets",
      "outputs": [
        {
          "internalType": "address[]",
          "name": "",
          "type": "address[]"
        }
      ],
      "payable": false,
      "stateMutability": "view",
      "type": "function"
    },
    {
      "constant": true,
      "inputs": [
        {
          "internalType": "bytes32[]",
          "name": "marketKeys",
          "type": "bytes32[]"
        }
      ],
      "name": "marketsForKeys",
      "outputs": [
        {
          "internalType": "address[]",
          "name": "",
          "type": "address[]"
        }
      ],
      "payable": false,
      "stateMutability": "view",
      "type": "function"
    },
    {
      "constant": false,
      "inputs": [
        {
          "internalType": "address",
          "name": "_owner",
          "type": "address"
        }
      ],
      "name": "nominateNewOwner",
      "outputs": [],
      "payable": false,
      "stateMutability": "nonpayable",
      "type": "function"
    },
    {
      "constant": true,
      "inputs": [],
      "name": "nominatedOwner",
      "outputs": [
        {
          "internalType": "address",
          "name": "",
          "type": "address"
        }
      ],
      "payable": false,
      "stateMutability": "view",
      "type": "function"
    },
    {
      "constant": true,
      "inputs": [],
      "name": "numMarkets",
      "outputs": [
        {
          "internalType": "uint256",
          "name": "",
          "type": "uint256"
        }
      ],
      "payable": false,
      "stateMutability": "view",
      "type": "function"
    },
    {
      "constant": true,
      "inputs": [
        {
          "internalType": "bool",
          "name": "proxiedMarkets",
          "type": "bool"
        }
      ],
      "name": "numMarkets",
      "outputs": [
        {
          "internalType": "uint256",
          "name": "",
          "type": "uint256"
        }
      ],
      "payable": false,
      "stateMutability": "view",
      "type": "function"
    },
    {
      "constant": true,
      "inputs": [],
      "name": "owner",
      "outputs": [
        {
          "internalType": "address",
          "name": "",
          "type": "address"
        }
      ],
      "payable": false,
      "stateMutability": "view",
      "type": "function"
    },
    {
      "constant": false,
      "inputs": [
        {
          "internalType": "uint256",
          "name": "amount",
          "type": "uint256"
        },
        {
          "internalType": "bytes32",
          "name": "trackingCode",
          "type": "bytes32"
        }
      ],
      "name": "payFee",
      "outputs": [],
      "payable": false,
      "stateMutability": "nonpayable",
      "type": "function"
    },
    {
      "constant": false,
      "inputs": [
        {
          "internalType": "uint256",
          "name": "amount",
          "type": "uint256"
        }
      ],
      "name": "payFee",
      "outputs": [],
      "payable": false,
      "stateMutability": "nonpayable",
      "type": "function"
    },
    {
      "constant": false,
      "inputs": [],
      "name": "rebuildCache",
      "outputs": [],
      "payable": false,
      "stateMutability": "nonpayable",
      "type": "function"
    },
    {
      "constant": false,
      "inputs": [
        {
          "internalType": "address[]",
          "name": "marketsToRemove",
          "type": "address[]"
        }
      ],
      "name": "removeMarkets",
      "outputs": [],
      "payable": false,
      "stateMutability": "nonpayable",
      "type": "function"
    },
    {
      "constant": false,
      "inputs": [
        {
          "internalType": "bytes32[]",
          "name": "marketKeysToRemove",
          "type": "bytes32[]"
        }
      ],
      "name": "removeMarketsByKey",
      "outputs": [],
      "payable": false,
      "stateMutability": "nonpayable",
      "type": "function"
    },
    {
      "constant": true,
      "inputs": [],
      "name": "resolver",
      "outputs": [
        {
          "internalType": "contract AddressResolver",
          "name": "",
          "type": "address"
        }
      ],
      "payable": false,
      "stateMutability": "view",
      "type": "function"
    },
    {
      "constant": true,
      "inputs": [],
      "name": "resolverAddressesRequired",
      "outputs": [
        {
          "internalType": "bytes32[]",
          "name": "addresses",
          "type": "bytes32[]"
        }
      ],
      "payable": false,
      "stateMutability": "view",
      "type": "function"
    },
    {
      "constant": true,
      "inputs": [],
      "name": "totalDebt",
      "outputs": [
        {
          "internalType": "uint256",
          "name": "debt",
          "type": "uint256"
        },
        {
          "internalType": "bool",
          "name": "isInvalid",
          "type": "bool"
        }
      ],
      "payable": false,
      "stateMutability": "view",
      "type": "function"
    },
    {
      "constant": false,
      "inputs": [
        {
          "internalType": "address[]",
          "name": "marketsToUpdate",
          "type": "address[]"
        }
      ],
      "name": "updateMarketsImplementations",
      "outputs": [],
      "payable": false,
      "stateMutability": "nonpayable",
      "type": "function"
    }
  ],
  "bytecode": "0x60806040523480156200001157600080fd5b506040516200448e3803806200448e83398181016040526200003791908101906200018a565b8082600073ffffffffffffffffffffffffffffffffffffffff168173ffffffffffffffffffffffffffffffffffffffff161415620000ac576040517f08c379a0000000000000000000000000000000000000000000000000000000008152600401620000a3906200025c565b60405180910390fd5b806000806101000a81548173ffffffffffffffffffffffffffffffffffffffff021916908373ffffffffffffffffffffffffffffffffffffffff1602179055507fb532073b38c83145e3e5135377a08bf9aab55bc0fd7c1179cd4fb995d2a5159c600082604051620001209291906200022f565b60405180910390a15080600260006101000a81548173ffffffffffffffffffffffffffffffffffffffff021916908373ffffffffffffffffffffffffffffffffffffffff16021790555050505062000319565b6000815190506200018481620002ff565b92915050565b600080604083850312156200019e57600080fd5b6000620001ae8582860162000173565b9250506020620001c18582860162000173565b9150509250929050565b620001d681620002c3565b82525050565b620001e7816200028f565b82525050565b6000620001fc6019836200027e565b91507f4f776e657220616464726573732063616e6e6f742062652030000000000000006000830152602082019050919050565b6000604082019050620002466000830185620001cb565b620002556020830184620001dc565b9392505050565b600060208201905081810360008301526200027781620001ed565b9050919050565b600082825260208201905092915050565b60006200029c82620002a3565b9050919050565b600073ffffffffffffffffffffffffffffffffffffffff82169050919050565b6000620002d082620002d7565b9050919050565b6000620002e482620002eb565b9050919050565b6000620002f882620002a3565b9050919050565b6200030a816200028f565b81146200031657600080fd5b50565b61416580620003296000396000f3fe608060405234801561001057600080fd5b50600436106101d95760003560e01c8063899ffef411610104578063c6bbdafb116100a2578063f04cfcea11610071578063f04cfcea14610530578063f607d9001461054c578063fc7b9c181461057c578063fe11edc91461059b576101d9565b8063c6bbdafb146104ac578063d289ade2146104c8578063da40385d146104e4578063e63bfadb14610500576101d9565b8063a7b5833f116100de578063a7b5833f14610414578063a9e0bef714610430578063bfef7bdf14610460578063c03852fb1461047c576101d9565b8063899ffef4146103a85780638da5cb5b146103c657806395fafa4a146103e4576101d9565b80634b955c381161017c5780636f9a0ca61161014b5780636f9a0ca614610334578063741853601461036457806379ba50971461036e57806383ce902214610378576101d9565b80634b955c38146102c05780634ed03526146102dc57806353a47bb7146102f8578063614d08f814610316576101d9565b806326e04f9d116101b857806326e04f9d146102485780632af64bd314610266578063375a7cba146102845780633c88ee18146102a2576101d9565b80628d3aca146101de57806304f3bcec1461020e5780631627540c1461022c575b600080fd5b6101f860048036036101f391908101906131c5565b6105cb565b6040516102059190613bcd565b60405180910390f35b61021661061f565b6040516102239190613cc2565b60405180910390f35b610246600480360361024191908101906130b1565b610645565b005b6102506106c8565b60405161025d9190613e1f565b60405180910390f35b61026e6106d8565b60405161027b9190613c33565b60405180910390f35b61028c6108ad565b6040516102999190613bcd565b60405180910390f35b6102aa6108d3565b6040516102b79190613c11565b60405180910390f35b6102da60048036036102d5919081019061313f565b6108ea565b005b6102f660048036036102f1919081019061313f565b610a13565b005b610300610a6c565b60405161030d9190613b37565b60405180910390f35b61031e610a92565b60405161032b9190613c4e565b60405180910390f35b61034e60048036036103499190810190613103565b610ab6565b60405161035b9190613e1f565b60405180910390f35b61036c610caa565b005b610376610e4b565b005b610392600480360361038d91908101906131c5565b610ffd565b60405161039f9190613c11565b60405180910390f35b6103b0611059565b6040516103bd9190613bef565b60405180910390f35b6103ce61113f565b6040516103db9190613b37565b60405180910390f35b6103fe60048036036103f99190810190613406565b611164565b60405161040b9190613bcd565b60405180910390f35b61042e60048036036104299190810190613103565b6111a9565b005b61044a6004803603610445919081019061313f565b611229565b6040516104579190613c11565b60405180910390f35b61047a6004803603610475919081019061313f565b61127d565b005b6104966004803603610491919081019061320a565b6112d3565b6040516104a39190613e1f565b60405180910390f35b6104c660048036036104c1919081019061338e565b6112fc565b005b6104e260048036036104dd9190810190613300565b611312565b005b6104fe60048036036104f9919081019061313f565b61132a565b005b61051a60048036036105159190810190613233565b611383565b6040516105279190613b37565b60405180910390f35b61054a600480360361054591908101906131c5565b6113b6565b005b6105666004803603610561919081019061320a565b611414565b6040516105739190613bcd565b60405180910390f35b610584611469565b604051610592929190613e3a565b60405180910390f35b6105b560048036036105b091908101906133ca565b611585565b6040516105c29190613bcd565b60405180910390f35b6060610617838380806020026020016040519081016040528093929190818152602001838360200280828437600081840152601f19601f820116905080830192505050505050506115a5565b905092915050565b600260009054906101000a900473ffffffffffffffffffffffffffffffffffffffff1681565b61064d611691565b80600160006101000a81548173ffffffffffffffffffffffffffffffffffffffff021916908373ffffffffffffffffffffffffffffffffffffffff1602179055507f906a1c6bd7e3091ea86693dd029a831c19049ce77f1dce2ce0bab1cacbabce22816040516106bd9190613b37565b60405180910390a150565b6000600460000180549050905090565b600060606106e4611059565b905060008090505b81518110156108a357600082828151811061070357fe5b602002602001015190506003600082815260200190815260200160002060009054906101000a900473ffffffffffffffffffffffffffffffffffffffff1673ffffffffffffffffffffffffffffffffffffffff16600260009054906101000a900473ffffffffffffffffffffffffffffffffffffffff1673ffffffffffffffffffffffffffffffffffffffff166321f8a721836040518263ffffffff1660e01b81526004016107b29190613c4e565b60206040518083038186803b1580156107ca57600080fd5b505afa1580156107de573d6000803e3d6000fd5b505050506040513d601f19601f8201168201806040525061080291908101906130da565b73ffffffffffffffffffffffffffffffffffffffff161415806108845750600073ffffffffffffffffffffffffffffffffffffffff166003600083815260200190815260200160002060009054906101000a900473ffffffffffffffffffffffffffffffffffffffff1673ffffffffffffffffffffffffffffffffffffffff16145b1561089557600093505050506108aa565b5080806001019150506106ec565b5060019150505b90565b60606108ce600060046000018054905060046117229092919063ffffffff16565b905090565b60606108e56108e06108ad565b611869565b905090565b6108f2611691565b600082829050905060005b81811015610a0d57600084848381811061091357fe5b905060200201602061092891908101906130b1565b9050600073ffffffffffffffffffffffffffffffffffffffff168173ffffffffffffffffffffffffffffffffffffffff16141561099a576040517f08c379a000000000000000000000000000000000000000000000000000000000815260040161099190613d7f565b60405180910390fd5b6109ae816004611d2490919063ffffffff16565b6109ed576040517f08c379a00000000000000000000000000000000000000000000000000000000081526004016109e490613dff565b60405180910390fd5b6109f681611e03565b6109ff81611f8b565b5080806001019150506108fd565b50505050565b610a1b611691565b600082829050905060005b81811015610a6657610a59848483818110610a3d57fe5b9050602002016020610a5291908101906130b1565b60016120ae565b8080600101915050610a26565b50505050565b600160009054906101000a900473ffffffffffffffffffffffffffffffffffffffff1681565b7f467574757265734d61726b65744d616e6167657200000000000000000000000081565b6000610ac0612392565b6000610aca612402565b90506000610ad6612432565b73ffffffffffffffffffffffffffffffffffffffff16631b16802c867f73555344000000000000000000000000000000000000000000000000000000006040518363ffffffff1660e01b8152600401610b30929190613b7b565b606060405180830381600087803b158015610b4a57600080fd5b505af1158015610b5e573d6000803e3d6000fd5b505050506040513d601f19601f82011682018060405250610b829190810190613455565b5050905060008490508160001015610c20578273ffffffffffffffffffffffffffffffffffffffff166370a08231876040518263ffffffff1660e01b8152600401610bcd9190613b37565b60206040518083038186803b158015610be557600080fd5b505afa158015610bf9573d6000803e3d6000fd5b505050506040513d601f19601f82011682018060405250610c1d9190810190613329565b90505b848110610c2d5784610c2f565b805b94508273ffffffffffffffffffffffffffffffffffffffff16639dc29fac87876040518363ffffffff1660e01b8152600401610c6c929190613ba4565b600060405180830381600087803b158015610c8657600080fd5b505af1158015610c9a573d6000803e3d6000fd5b5050505084935050505092915050565b6060610cb4611059565b905060008090505b8151811015610e47576000828281518110610cd357fe5b602002602001015190506000600260009054906101000a900473ffffffffffffffffffffffffffffffffffffffff1673ffffffffffffffffffffffffffffffffffffffff1663dacb2d018384604051602001610d2f9190613b11565b6040516020818303038152906040526040518363ffffffff1660e01b8152600401610d5b929190613c92565b60206040518083038186803b158015610d7357600080fd5b505afa158015610d87573d6000803e3d6000fd5b505050506040513d601f19601f82011682018060405250610dab91908101906130da565b9050806003600084815260200190815260200160002060006101000a81548173ffffffffffffffffffffffffffffffffffffffff021916908373ffffffffffffffffffffffffffffffffffffffff1602179055507f88a93678a3692f6789d9546fc621bf7234b101ddb7d4fe479455112831b8aa688282604051610e30929190613c69565b60405180910390a150508080600101915050610cbc565b5050565b600160009054906101000a900473ffffffffffffffffffffffffffffffffffffffff1673ffffffffffffffffffffffffffffffffffffffff163373ffffffffffffffffffffffffffffffffffffffff1614610edb576040517f08c379a0000000000000000000000000000000000000000000000000000000008152600401610ed290613cff565b60405180910390fd5b7fb532073b38c83145e3e5135377a08bf9aab55bc0fd7c1179cd4fb995d2a5159c6000809054906101000a900473ffffffffffffffffffffffffffffffffffffffff16600160009054906101000a900473ffffffffffffffffffffffffffffffffffffffff16604051610f4f929190613b52565b60405180910390a1600160009054906101000a900473ffffffffffffffffffffffffffffffffffffffff166000806101000a81548173ffffffffffffffffffffffffffffffffffffffff021916908373ffffffffffffffffffffffffffffffffffffffff1602179055506000600160006101000a81548173ffffffffffffffffffffffffffffffffffffffff021916908373ffffffffffffffffffffffffffffffffffffffff160217905550565b606061105161104c848480806020026020016040519081016040528093929190818152602001838360200280828437600081840152601f19601f820116905080830192505050505050506115a5565b611869565b905092915050565b6060600360405190808252806020026020018201604052801561108b5781602001602082028038833980820191505090505b5090507f53796e7468735553440000000000000000000000000000000000000000000000816000815181106110bc57fe5b6020026020010181815250507f466565506f6f6c00000000000000000000000000000000000000000000000000816001815181106110f657fe5b6020026020010181815250507f45786368616e67657200000000000000000000000000000000000000000000008160028151811061113057fe5b60200260200101818152505090565b6000809054906101000a900473ffffffffffffffffffffffffffffffffffffffff1681565b6060811561118957611182848460086117229092919063ffffffff16565b90506111a2565b61119f848460066117229092919063ffffffff16565b90505b9392505050565b6111b1612392565b6111b9612402565b73ffffffffffffffffffffffffffffffffffffffff1663867904b483836040518363ffffffff1660e01b81526004016111f3929190613ba4565b600060405180830381600087803b15801561120d57600080fd5b505af1158015611221573d6000803e3d6000fd5b505050505050565b6060611275838380806020026020016040519081016040528093929190818152602001838360200280828437600081840152601f19601f82011690508083019250505050505050611869565b905092915050565b611285611691565b6112cf828280806020026020016040519081016040528093929190818152602001838360200280828437600081840152601f19601f82011690508083019250505050505050612462565b5050565b600081156112eb5760086000018054905090506112f7565b60066000018054905090505b919050565b611304612392565b61130e828261278a565b5050565b61131a612392565b611327816000801b61278a565b50565b611332611691565b600082829050905060005b8181101561137d5761137084848381811061135457fe5b905060200201602061136991908101906130b1565b60006120ae565b808060010191505061133d565b50505050565b600a6020528060005260406000206000915054906101000a900473ffffffffffffffffffffffffffffffffffffffff1681565b6113be611691565b61141061140b838380806020026020016040519081016040528093929190818152602001838360200280828437600081840152601f19601f820116905080830192505050505050506115a5565b612462565b5050565b606081156114425761143b600060086000018054905060086117229092919063ffffffff16565b9050611464565b611461600060066000018054905060066117229092919063ffffffff16565b90505b919050565b6000806000806000600460000180549050905060008090505b81811015611577576000806004600001838154811061149d57fe5b9060005260206000200160009054906101000a900473ffffffffffffffffffffffffffffffffffffffff1673ffffffffffffffffffffffffffffffffffffffff1663e8c634706040518163ffffffff1660e01b8152600401604080518083038186803b15801561150c57600080fd5b505afa158015611520573d6000803e3d6000fd5b505050506040513d601f19601f820116820180604052506115449190810190613352565b9150915061155b82876128fb90919063ffffffff16565b955084806115665750805b945050508080600101915050611482565b508282945094505050509091565b606061159d838360046117229092919063ffffffff16565b905092915050565b60606000825190506060816040519080825280602002602001820160405280156115de5781602001602082028038833980820191505090505b50905060005b8281101561168657600a60008683815181106115fc57fe5b6020026020010151815260200190815260200160002060009054906101000a900473ffffffffffffffffffffffffffffffffffffffff1682828151811061163f57fe5b602002602001019073ffffffffffffffffffffffffffffffffffffffff16908173ffffffffffffffffffffffffffffffffffffffff168152505080806001019150506115e4565b508092505050919050565b6000809054906101000a900473ffffffffffffffffffffffffffffffffffffffff1673ffffffffffffffffffffffffffffffffffffffff163373ffffffffffffffffffffffffffffffffffffffff1614611720576040517f08c379a000000000000000000000000000000000000000000000000000000000815260040161171790613d9f565b60405180910390fd5b565b606060008284019050846000018054905081111561174557846000018054905090505b83811161178557600060405190808252806020026020018201604052801561177c5781602001602082028038833980820191505090505b50915050611862565b600084820390506060816040519080825280602002602001820160405280156117bd5781602001602082028038833980820191505090505b50905060005b8281101561185a5787600001878201815481106117dc57fe5b9060005260206000200160009054906101000a900473ffffffffffffffffffffffffffffffffffffffff1682828151811061181357fe5b602002602001019073ffffffffffffffffffffffffffffffffffffffff16908173ffffffffffffffffffffffffffffffffffffffff168152505080806001019150506117c3565b508093505050505b9392505050565b60606000825190506060816040519080825280602002602001820160405280156118ad57816020015b61189a612d2d565b8152602001906001900390816118925790505b50905060005b82811015611d195760008582815181106118c957fe5b6020026020010151905060008173ffffffffffffffffffffffffffffffffffffffff1663d7103a466040518163ffffffff1660e01b815260040160206040518083038186803b15801561191b57600080fd5b505afa15801561192f573d6000803e3d6000fd5b505050506040513d601f19601f82011682018060405250611953919081019061325c565b905060008273ffffffffffffffffffffffffffffffffffffffff1663cdf456e16040518163ffffffff1660e01b815260040160206040518083038186803b15801561199d57600080fd5b505afa1580156119b1573d6000803e3d6000fd5b505050506040513d601f19601f820116820180604052506119d5919081019061325c565b90506000808473ffffffffffffffffffffffffffffffffffffffff1663d24378eb6040518163ffffffff1660e01b8152600401604080518083038186803b158015611a1f57600080fd5b505afa158015611a33573d6000803e3d6000fd5b505050506040513d601f19601f82011682018060405250611a579190810190613352565b9150915060008573ffffffffffffffffffffffffffffffffffffffff1663e8c634706040518163ffffffff1660e01b8152600401604080518083038186803b158015611aa257600080fd5b505afa158015611ab6573d6000803e3d6000fd5b505050506040513d601f19601f82011682018060405250611ada9190810190613352565b5090506040518061014001604052808773ffffffffffffffffffffffffffffffffffffffff1681526020018581526020018681526020018481526020018773ffffffffffffffffffffffffffffffffffffffff1663eb56105d6040518163ffffffff1660e01b815260040160206040518083038186803b158015611b5d57600080fd5b505afa158015611b71573d6000803e3d6000fd5b505050506040513d601f19601f82011682018060405250611b9591908101906132d7565b6fffffffffffffffffffffffffffffffff1681526020018773ffffffffffffffffffffffffffffffffffffffff16632b58ecef6040518163ffffffff1660e01b815260040160206040518083038186803b158015611bf257600080fd5b505afa158015611c06573d6000803e3d6000fd5b505050506040513d601f19601f82011682018060405250611c2a9190810190613285565b600f0b81526020018281526020018773ffffffffffffffffffffffffffffffffffffffff16633aef4d0b6040518163ffffffff1660e01b815260040160206040518083038186803b158015611c7e57600080fd5b505afa158015611c92573d6000803e3d6000fd5b505050506040513d601f19601f82011682018060405250611cb691908101906132ae565b81526020018315158152602001611cea8d8a81518110611cd257fe5b60200260200101516008611d2490919063ffffffff16565b1515815250888881518110611cfb57fe5b602002602001018190525050505050505080806001019150506118b3565b508092505050919050565b60008083600001805490501415611d3e5760009050611dfd565b60008360010160008473ffffffffffffffffffffffffffffffffffffffff1673ffffffffffffffffffffffffffffffffffffffff168152602001908152602001600020549050600081141580611df957508273ffffffffffffffffffffffffffffffffffffffff1684600001600081548110611db657fe5b9060005260206000200160009054906101000a900473ffffffffffffffffffffffffffffffffffffffff1673ffffffffffffffffffffffffffffffffffffffff16145b9150505b92915050565b6060600d60008373ffffffffffffffffffffffffffffffffffffffff1673ffffffffffffffffffffffffffffffffffffffff168152602001908152602001600020805480602002602001604051908101604052809291908181526020018280548015611ec457602002820191906000526020600020905b8160009054906101000a900473ffffffffffffffffffffffffffffffffffffffff1673ffffffffffffffffffffffffffffffffffffffff1681526020019060010190808311611e7a575b5050505050905060008090505b8151811015611f3b57611f01828281518110611ee957fe5b6020026020010151600b611d2490919063ffffffff16565b15611f2e57611f2d828281518110611f1557fe5b6020026020010151600b61295090919063ffffffff16565b5b8080600101915050611ed1565b50600d60008373ffffffffffffffffffffffffffffffffffffffff1673ffffffffffffffffffffffffffffffffffffffff1681526020019081526020016000206000611f879190612da0565b5050565b60608173ffffffffffffffffffffffffffffffffffffffff16631d46021f6040518163ffffffff1660e01b815260040160006040518083038186803b158015611fd357600080fd5b505afa158015611fe7573d6000803e3d6000fd5b505050506040513d6000823e3d601f19601f820116820180604052506120109190810190613184565b905060008090505b81518110156120555761204882828151811061203057fe5b6020026020010151600b612b6090919063ffffffff16565b8080600101915050612018565b5080600d60008473ffffffffffffffffffffffffffffffffffffffff1673ffffffffffffffffffffffffffffffffffffffff16815260200190815260200160002090805190602001906120a9929190612dc1565b505050565b6120b6611691565b6120ca826004611d2490919063ffffffff16565b1561210a576040517f08c379a000000000000000000000000000000000000000000000000000000000815260040161210190613d5f565b60405180910390fd5b60008273ffffffffffffffffffffffffffffffffffffffff1663d7103a466040518163ffffffff1660e01b815260040160206040518083038186803b15801561215257600080fd5b505afa158015612166573d6000803e3d6000fd5b505050506040513d601f19601f8201168201806040525061218a919081019061325c565b905060008373ffffffffffffffffffffffffffffffffffffffff1663cdf456e16040518163ffffffff1660e01b815260040160206040518083038186803b1580156121d457600080fd5b505afa1580156121e8573d6000803e3d6000fd5b505050506040513d601f19601f8201168201806040525061220c919081019061325c565b9050600073ffffffffffffffffffffffffffffffffffffffff16600a600084815260200190815260200160002060009054906101000a900473ffffffffffffffffffffffffffffffffffffffff1673ffffffffffffffffffffffffffffffffffffffff16146122b0576040517f08c379a00000000000000000000000000000000000000000000000000000000081526004016122a790613dbf565b60405180910390fd5b83600a600084815260200190815260200160002060006101000a81548173ffffffffffffffffffffffffffffffffffffffff021916908373ffffffffffffffffffffffffffffffffffffffff160217905550612316846004612b6090919063ffffffff16565b821561233e57612330846008612b6090919063ffffffff16565b61233984611f8b565b612353565b612352846006612b6090919063ffffffff16565b5b81817f96bfb0243b17c28e58d33656cd16adf56e92fc6bbeedab19c4a1c56f585274d6866040516123849190613b37565b60405180910390a350505050565b6123a6336006611d2490919063ffffffff16565b806123c157506123c033600b611d2490919063ffffffff16565b5b612400576040517f08c379a00000000000000000000000000000000000000000000000000000000081526004016123f790613ddf565b60405180910390fd5b565b600061242d7f53796e7468735553440000000000000000000000000000000000000000000000612c28565b905090565b600061245d7f45786368616e6765720000000000000000000000000000000000000000000000612c28565b905090565b60008151905060005b8181101561278557600083828151811061248157fe5b60200260200101519050600073ffffffffffffffffffffffffffffffffffffffff168173ffffffffffffffffffffffffffffffffffffffff1614156124fb576040517f08c379a00000000000000000000000000000000000000000000000000000000081526004016124f290613dff565b60405180910390fd5b60008173ffffffffffffffffffffffffffffffffffffffff1663d7103a466040518163ffffffff1660e01b815260040160206040518083038186803b15801561254357600080fd5b505afa158015612557573d6000803e3d6000fd5b505050506040513d601f19601f8201168201806040525061257b919081019061325c565b905060008273ffffffffffffffffffffffffffffffffffffffff1663cdf456e16040518163ffffffff1660e01b815260040160206040518083038186803b1580156125c557600080fd5b505afa1580156125d9573d6000803e3d6000fd5b505050506040513d601f19601f820116820180604052506125fd919081019061325c565b9050600073ffffffffffffffffffffffffffffffffffffffff16600a600084815260200190815260200160002060009054906101000a900473ffffffffffffffffffffffffffffffffffffffff1673ffffffffffffffffffffffffffffffffffffffff1614156126a2576040517f08c379a000000000000000000000000000000000000000000000000000000000815260040161269990613dff565b60405180910390fd5b6126b6836008611d2490919063ffffffff16565b156126dd576126c483611e03565b6126d883600861295090919063ffffffff16565b6126f2565b6126f183600661295090919063ffffffff16565b5b600a600083815260200190815260200160002060006101000a81549073ffffffffffffffffffffffffffffffffffffffff021916905561273c83600461295090919063ffffffff16565b81817fce64c0b68d87b6796835a03e01a9e3935b8ed965b01df87766b1e5e35ab44bfd8560405161276d9190613b37565b60405180910390a3505050808060010191505061246b565b505050565b600090506000612798612cfd565b90506127a2612402565b73ffffffffffffffffffffffffffffffffffffffff1663867904b48273ffffffffffffffffffffffffffffffffffffffff1663eb1edd616040518163ffffffff1660e01b815260040160206040518083038186803b15801561280357600080fd5b505afa158015612817573d6000803e3d6000fd5b505050506040513d601f19601f8201168201806040525061283b91908101906130da565b856040518363ffffffff1660e01b8152600401612859929190613ba4565b600060405180830381600087803b15801561287357600080fd5b505af1158015612887573d6000803e3d6000fd5b505050508073ffffffffffffffffffffffffffffffffffffffff166322bf55ef846040518263ffffffff1660e01b81526004016128c49190613e1f565b600060405180830381600087803b1580156128de57600080fd5b505af11580156128f2573d6000803e3d6000fd5b50505050505050565b600080828401905083811015612946576040517f08c379a000000000000000000000000000000000000000000000000000000000815260040161293d90613d1f565b60405180910390fd5b8091505092915050565b61295a8282611d24565b612999576040517f08c379a000000000000000000000000000000000000000000000000000000000815260040161299090613d3f565b60405180910390fd5b60008260010160008373ffffffffffffffffffffffffffffffffffffffff1673ffffffffffffffffffffffffffffffffffffffff168152602001908152602001600020549050600060018460000180549050039050808214612ad3576000846000018281548110612a0657fe5b9060005260206000200160009054906101000a900473ffffffffffffffffffffffffffffffffffffffff16905080856000018481548110612a4357fe5b9060005260206000200160006101000a81548173ffffffffffffffffffffffffffffffffffffffff021916908373ffffffffffffffffffffffffffffffffffffffff160217905550828560010160008373ffffffffffffffffffffffffffffffffffffffff1673ffffffffffffffffffffffffffffffffffffffff16815260200190815260200160002081905550505b83600001805480612ae057fe5b6001900381819060005260206000200160006101000a81549073ffffffffffffffffffffffffffffffffffffffff021916905590558360010160008473ffffffffffffffffffffffffffffffffffffffff1673ffffffffffffffffffffffffffffffffffffffff1681526020019081526020016000206000905550505050565b612b6a8282611d24565b612c245781600001805490508260010160008373ffffffffffffffffffffffffffffffffffffffff1673ffffffffffffffffffffffffffffffffffffffff16815260200190815260200160002081905550816000018190806001815401808255809150509060018203906000526020600020016000909192909190916101000a81548173ffffffffffffffffffffffffffffffffffffffff021916908373ffffffffffffffffffffffffffffffffffffffff160217905550505b5050565b6000806003600084815260200190815260200160002060009054906101000a900473ffffffffffffffffffffffffffffffffffffffff169050600073ffffffffffffffffffffffffffffffffffffffff168173ffffffffffffffffffffffffffffffffffffffff16141583604051602001612ca39190613aeb565b60405160208183030381529060405290612cf3576040517f08c379a0000000000000000000000000000000000000000000000000000000008152600401612cea9190613cdd565b60405180910390fd5b5080915050919050565b6000612d287f466565506f6f6c00000000000000000000000000000000000000000000000000612c28565b905090565b604051806101400160405280600073ffffffffffffffffffffffffffffffffffffffff168152602001600080191681526020016000801916815260200160008152602001600081526020016000815260200160008152602001600081526020016000151581526020016000151581525090565b5080546000825590600052602060002090810190612dbe9190612e4b565b50565b828054828255906000526020600020908101928215612e3a579160200282015b82811115612e395782518260006101000a81548173ffffffffffffffffffffffffffffffffffffffff021916908373ffffffffffffffffffffffffffffffffffffffff16021790555091602001919060010190612de1565b5b509050612e479190612e70565b5090565b612e6d91905b80821115612e69576000816000905550600101612e51565b5090565b90565b612eb091905b80821115612eac57600081816101000a81549073ffffffffffffffffffffffffffffffffffffffff021916905550600101612e76565b5090565b90565b600081359050612ec281614081565b92915050565b600081519050612ed781614081565b92915050565b60008083601f840112612eef57600080fd5b8235905067ffffffffffffffff811115612f0857600080fd5b602083019150836020820283011115612f2057600080fd5b9250929050565b600082601f830112612f3857600080fd5b8151612f4b612f4682613e90565b613e63565b91508181835260208401935060208101905083856020840282011115612f7057600080fd5b60005b83811015612fa05781612f868882612ec8565b845260208401935060208301925050600181019050612f73565b5050505092915050565b60008083601f840112612fbc57600080fd5b8235905067ffffffffffffffff811115612fd557600080fd5b602083019150836020820283011115612fed57600080fd5b9250929050565b60008135905061300381614098565b92915050565b60008151905061301881614098565b92915050565b60008135905061302d816140af565b92915050565b600081519050613042816140af565b92915050565b600081519050613057816140c6565b92915050565b60008151905061306c816140dd565b92915050565b600081519050613081816140f4565b92915050565b6000813590506130968161410b565b92915050565b6000815190506130ab8161410b565b92915050565b6000602082840312156130c357600080fd5b60006130d184828501612eb3565b91505092915050565b6000602082840312156130ec57600080fd5b60006130fa84828501612ec8565b91505092915050565b6000806040838503121561311657600080fd5b600061312485828601612eb3565b925050602061313585828601613087565b9150509250929050565b6000806020838503121561315257600080fd5b600083013567ffffffffffffffff81111561316c57600080fd5b61317885828601612edd565b92509250509250929050565b60006020828403121561319657600080fd5b600082015167ffffffffffffffff8111156131b057600080fd5b6131bc84828501612f27565b91505092915050565b600080602083850312156131d857600080fd5b600083013567ffffffffffffffff8111156131f257600080fd5b6131fe85828601612faa565b92509250509250929050565b60006020828403121561321c57600080fd5b600061322a84828501612ff4565b91505092915050565b60006020828403121561324557600080fd5b60006132538482850161301e565b91505092915050565b60006020828403121561326e57600080fd5b600061327c84828501613033565b91505092915050565b60006020828403121561329757600080fd5b60006132a584828501613048565b91505092915050565b6000602082840312156132c057600080fd5b60006132ce8482850161305d565b91505092915050565b6000602082840312156132e957600080fd5b60006132f784828501613072565b91505092915050565b60006020828403121561331257600080fd5b600061332084828501613087565b91505092915050565b60006020828403121561333b57600080fd5b60006133498482850161309c565b91505092915050565b6000806040838503121561336557600080fd5b60006133738582860161309c565b925050602061338485828601613009565b9150509250929050565b600080604083850312156133a157600080fd5b60006133af85828601613087565b92505060206133c08582860161301e565b9150509250929050565b600080604083850312156133dd57600080fd5b60006133eb85828601613087565b92505060206133fc85828601613087565b9150509250929050565b60008060006060848603121561341b57600080fd5b600061342986828701613087565b935050602061343a86828701613087565b925050604061344b86828701612ff4565b9150509250925092565b60008060006060848603121561346a57600080fd5b60006134788682870161309c565b93505060206134898682870161309c565b925050604061349a8682870161309c565b9150509250925092565b60006134b083836134ed565b60208301905092915050565b60006134c88383613643565b60208301905092915050565b60006134e08383613a01565b6101408301905092915050565b6134f681613f8a565b82525050565b61350581613f8a565b82525050565b600061351682613ee8565b6135208185613f3b565b935061352b83613eb8565b8060005b8381101561355c57815161354388826134a4565b975061354e83613f14565b92505060018101905061352f565b5085935050505092915050565b600061357482613ef3565b61357e8185613f4c565b935061358983613ec8565b8060005b838110156135ba5781516135a188826134bc565b97506135ac83613f21565b92505060018101905061358d565b5085935050505092915050565b60006135d282613efe565b6135dc8185613f5d565b93506135e783613ed8565b8060005b838110156136185781516135ff88826134d4565b975061360a83613f2e565b9250506001810190506135eb565b5085935050505092915050565b61362e81613f9c565b82525050565b61363d81613f9c565b82525050565b61364c81613fa8565b82525050565b61365b81613fa8565b82525050565b61367261366d82613fa8565b614066565b82525050565b6136818161400f565b82525050565b61369081613fbf565b82525050565b60006136a182613f09565b6136ab8185613f6e565b93506136bb818560208601614033565b6136c481614070565b840191505092915050565b60006136dc603583613f6e565b91507f596f75206d757374206265206e6f6d696e61746564206265666f726520796f7560008301527f2063616e20616363657074206f776e65727368697000000000000000000000006020830152604082019050919050565b6000613742601b83613f6e565b91507f536166654d6174683a206164646974696f6e206f766572666c6f7700000000006000830152602082019050919050565b6000613782601383613f6e565b91507f456c656d656e74206e6f7420696e207365742e000000000000000000000000006000830152602082019050919050565b60006137c2601583613f6e565b91507f4d61726b657420616c72656164792065786973747300000000000000000000006000830152602082019050919050565b6000613802601183613f7f565b91507f4d697373696e6720616464726573733a200000000000000000000000000000006000830152601182019050919050565b6000613842600e83613f6e565b91507f496e76616c6964206d61726b65740000000000000000000000000000000000006000830152602082019050919050565b6000613882602f83613f6e565b91507f4f6e6c792074686520636f6e7472616374206f776e6572206d6179207065726660008301527f6f726d207468697320616374696f6e00000000000000000000000000000000006020830152604082019050919050565b60006138e8601d83613f6e565b91507f4d61726b657420616c72656164792065786973747320666f72206b65790000006000830152602082019050919050565b6000613928601983613f7f565b91507f5265736f6c766572206d697373696e67207461726765743a20000000000000006000830152601982019050919050565b6000613968602983613f6e565b91507f5065726d6974746564206f6e6c7920666f72206d61726b657420696d706c656d60008301527f656e746174696f6e7300000000000000000000000000000000000000000000006020830152604082019050919050565b60006139ce600e83613f6e565b91507f556e6b6e6f776e206d61726b65740000000000000000000000000000000000006000830152602082019050919050565b61014082016000820151613a1860008501826134ed565b506020820151613a2b6020850182613643565b506040820151613a3e6040850182613643565b506060820151613a516060850182613acd565b506080820151613a646080850182613acd565b5060a0820151613a7760a0850182613687565b5060c0820151613a8a60c0850182613acd565b5060e0820151613a9d60e0850182613687565b50610100820151613ab2610100850182613625565b50610120820151613ac7610120850182613625565b50505050565b613ad681614005565b82525050565b613ae581614005565b82525050565b6000613af6826137f5565b9150613b028284613661565b60208201915081905092915050565b6000613b1c8261391b565b9150613b288284613661565b60208201915081905092915050565b6000602082019050613b4c60008301846134fc565b92915050565b6000604082019050613b6760008301856134fc565b613b7460208301846134fc565b9392505050565b6000604082019050613b9060008301856134fc565b613b9d6020830184613652565b9392505050565b6000604082019050613bb960008301856134fc565b613bc66020830184613adc565b9392505050565b60006020820190508181036000830152613be7818461350b565b905092915050565b60006020820190508181036000830152613c098184613569565b905092915050565b60006020820190508181036000830152613c2b81846135c7565b905092915050565b6000602082019050613c486000830184613634565b92915050565b6000602082019050613c636000830184613652565b92915050565b6000604082019050613c7e6000830185613652565b613c8b60208301846134fc565b9392505050565b6000604082019050613ca76000830185613652565b8181036020830152613cb98184613696565b90509392505050565b6000602082019050613cd76000830184613678565b92915050565b60006020820190508181036000830152613cf78184613696565b905092915050565b60006020820190508181036000830152613d18816136cf565b9050919050565b60006020820190508181036000830152613d3881613735565b9050919050565b60006020820190508181036000830152613d5881613775565b9050919050565b60006020820190508181036000830152613d78816137b5565b9050919050565b60006020820190508181036000830152613d9881613835565b9050919050565b60006020820190508181036000830152613db881613875565b9050919050565b60006020820190508181036000830152613dd8816138db565b9050919050565b60006020820190508181036000830152613df88161395b565b9050919050565b60006020820190508181036000830152613e18816139c1565b9050919050565b6000602082019050613e346000830184613adc565b92915050565b6000604082019050613e4f6000830185613adc565b613e5c6020830184613634565b9392505050565b6000604051905081810181811067ffffffffffffffff82111715613e8657600080fd5b8060405250919050565b600067ffffffffffffffff821115613ea757600080fd5b602082029050602081019050919050565b6000819050602082019050919050565b6000819050602082019050919050565b6000819050602082019050919050565b600081519050919050565b600081519050919050565b600081519050919050565b600081519050919050565b6000602082019050919050565b6000602082019050919050565b6000602082019050919050565b600082825260208201905092915050565b600082825260208201905092915050565b600082825260208201905092915050565b600082825260208201905092915050565b600081905092915050565b6000613f9582613fe5565b9050919050565b60008115159050919050565b6000819050919050565b600081600f0b9050919050565b6000819050919050565b60006fffffffffffffffffffffffffffffffff82169050919050565b600073ffffffffffffffffffffffffffffffffffffffff82169050919050565b6000819050919050565b600061401a82614021565b9050919050565b600061402c82613fe5565b9050919050565b60005b83811015614051578082015181840152602081019050614036565b83811115614060576000848401525b50505050565b6000819050919050565b6000601f19601f8301169050919050565b61408a81613f8a565b811461409557600080fd5b50565b6140a181613f9c565b81146140ac57600080fd5b50565b6140b881613fa8565b81146140c357600080fd5b50565b6140cf81613fb2565b81146140da57600080fd5b50565b6140e681613fbf565b81146140f157600080fd5b50565b6140fd81613fc9565b811461410857600080fd5b50565b61411481614005565b811461411f57600080fd5b5056fea365627a7a72315820a50558567bd47ada5783d2484e79397f4c73f3832d698809ccdb6f31bb043df86c6578706572696d656e74616cf564736f6c63430005100040",
  "linkReferences": {},
  "deployedLinkReferences": {}
}